:04000000020029329F
:03000B00020C0CD8
:0100130032BA
:01001B0032B2
:03002300020B319C
:0300820002002653
:030026000209B715
:1000850090000D120BD8900E7475F080120DED9046
:10009500000D020BD87D007E007F809015C575F0A0
:1000A50080C007C006C005120DEDD005D006D007EB
:1000B500E4F522F523C374FF9522741F952350039D
:1000C500020288C3E5229410E52394005023C0075B
:1000D500C006C005C022C02374D3C0E07415C0E0BB
:1000E500120C97E58124FCF581D005D006D0078058
:1000F5007374FF25234023C007C006C005C022C076
:100105002374DBC0E07415C0E0120C97E58124FC74
:10011500F581D005D006D007804A74F02523402309
:10012500C007C006C005C022C02374E2C0E0741534
:10013500C0E0120C97E58124FCF581D005D006D0EE
:10014500078021C007C006C005C022C02374E8C0CF
:10015500E07415C0E0120C97E58124FCF581D0050B
:10016500D006D0078D008E018F02E4F524F525C356
:10017500E5249410E5259400505D888289838AF0F2
:10018500120E2DFCBC10005012900030C002C001B0
:10019500C000120BD8D000D001D002888289838A92
:1001A500F0120E2DFCA3A882A9837B00C002C0011A
:1001B500C000C004C00374EDC0E07415C0E0120CAB
:1001C50097E58124FCF581D000D001D0020524E417
:1001D500B5249C05258098C002C001C00074F1C0FB
:1001E500E07415C0E0120C9715811581D000D0017F
:1001F500D002E824F0FCE934FFFB75260074F025F5
:100205002640548C828B838AF0120E2DF8B820007C
:100215004005E82481501490002EC004C003C0029C
:10022500120BD8D002D003D00480237900C004C0BB
:1002350003C002C000C00174F4C0E07415C0E01230
:100245000C97E58124FCF581D002D003D0040CBCC9
:1002550000010B052680A68C058B068A0790007C7D
:10026500C007C006C005120BD890000D120BD8D0E0
:1002750005D006D00774102522F522E43523F52391
:100285000200BA90000D020BD87D007E007F4090E1
:1002950015F775F080C007C006C005120DEDD00535
:1002A500D006D007E4F527F528C374FF9527E49514
:1002B50028500302047BC3E5279410E528940050D9
:1002C50023C007C006C005C027C02874D3C0E0748A
:1002D50015C0E0120C97E58124FCF581D005D00608
:1002E500D007807374FF25284023C007C006C005CA
:1002F500C027C02874DBC0E07415C0E0120C97E578
:100305008124FCF581D005D006D007804A74F025FC
:10031500284023C007C006C005C027C02874E2C016
:10032500E07415C0E0120C97E58124FCF581D00539
:10033500D006D0078021C007C006C005C027C02849
:1003450074E8C0E07415C0E0120C97E58124FCF553
:1003550081D005D006D0078D008E018F02E4F529E6
:10036500F52AC3E5299410E52A9400505D88828911
:10037500838AF0120E2DFCBC10005012900030C084
:1003850002C001C000120BD8D000D001D002888273
:1003950089838AF0120E2DFCA3A882A9837B00C055
:1003A50002C001C000C004C00374EDC0E07415C0F4
:1003B500E0120C97E58124FCF581D000D001D00234
:1003C5000529E4B5299C052A8098C002C001C00012
:1003D50074F1C0E07415C0E0120C9715811581D039
:1003E50000D001D002E824F0FCE934FFFB752B00B6
:1003F50074F0252B40548C828B838AF0120E2DF8D5
:10040500B820004005E82481501490002EC004C097
:1004150003C002120BD8D002D003D0048023790088
:10042500C004C003C002C000C00174F4C0E074156C
:10043500C0E0120C97E58124FCF581D002D003D0F1
:10044500040CBC00010B052B80A68C058B068A07C6
:1004550090007CC007C006C005120BD890000D1295
:100465000BD8D005D006D00774102527F527E4351D
:1004750028F5280202AE90000D020BD8752C0075E8
:100485002D00752E8090160B75F080120DED7B00FA
:100495007C00C374FF9B741F9C5003020690C0042C
:1004A500C003742CC0E07416C0E0120C97158115BA
:1004B50081D003D00479107A00C3EB9410EC94003A
:1004C5005028C004C003C002C001C003C00474307A
:1004D500C0E07416C0E0120C97E58124FCF581D0CC
:1004E50001D002D003D00402056C74FF2C4027C054
:1004F50004C003C002C001C003C0047436C0E07468
:1005050016C0E0120C97E58124FCF581D001D002DC
:10051500D003D004805174F02C4027C004C003C020
:1005250002C001C003C004743BC0E07416C0E012F1
:100535000C97E58124FCF581D001D002D003D004CD
:100545008025C004C003C002C001C003C004743FBD
:10055500C0E07416C0E0120C97E58124FCF581D04B
:1005650001D002D003D0048C0088077800EF29FF62
:10057500E83AF88B057E00ED2FF52FEE38F530C003
:1005850004C0037442C0E07416C0E0120C971581D4
:100595001581D003D004AD2CAA2DA92E7800B81052
:1005A5000040030206308D828A8389F0120E2DFFEA
:1005B500BF1000501E900030C005C004C003C0022B
:1005C500C001C000120BD8D000D001D002D003D09A
:1005D50004D0058D828A8389F0120E2DFF7E00C01E
:1005E50005C004C003C002C001C000C007C0067436
:1005F5003FC0E07416C0E0120C97E58124FCF5813C
:10060500D000D001D002D003D004D0058D828A83DA
:1006150089F0120E2DFFA3AD82AA837E00EF252F50
:10062500F52FEE3530F530080205A38D2C8A2D897E
:100635002EE52FF4FEE530F47F000EBE00010F8E8F
:10064500027D00C3EA9410ED94005016900030C06E
:1006550007C006C004C003120BD8D003D004D006CF
:10066500D0077F00C004C003C006C0077445C0E0C2
:100675007416C0E0120C97E58124FCF581D003D0F7
:100685000474102BFBE43CFC020497744CC0E0742A
:1006950016C0E07480C0E07449C0E07416C0E01272
:1006A5000C97E58124FBF58190000D120BD8900085
:1006B5000D020BD890165875F080120DED80FE7561
:1006C50080FF7590FF75A0FF75B0FF750EFD7582F3
:1006D500FF120B01120085748CC0E07416C0E07423
:1006E50080C0E07486C0E07416C0E07480C0E07419
:1006F5006DC0E07416C0E0120C97E58124F8F58111
:1007050074FDC0E0E4C0E014C0E0E4C0E07494C04F
:10071500E07416C0E0120C97E58124FAF58174D8CF
:10072500C0E07416C0E07480C0E074BEC0E074160A
:10073500C0E0120C97E58124FBF581750EED7582FD
:10074500DE120BF474EDC0E0E4C0E074DEC0E0E45A
:10075500C0E074DFC0E07416C0E0120C97E5812498
:10076500FAF58190170975F080120DED900E4D7513
:10077500F080020DEDAF82E4BF030104FE60238F1C
:10078500047D00C007C006C004C0057450C0E074F5
:1007950017C0E0120C97E58124FCF581D006D0073F
:1007A5008047BF02238F047D00C007C006C004C078
:1007B500057473C0E07417C0E0120C97E58124FC42
:1007C500F581D006D00780218F047D00C007C006C3
:1007D500C004C0057496C0E07417C0E0120C97E51C
:1007E5008124FCF581D006D007C007C006120BA7EF
:1007F500E582D006D00760F1C007C006120BECAC4D
:1008050082D006D007EC24D0F5318F037C00A931C6
:100815007A00C007C006C004C003C002C001C003FF
:10082500C004C001C00274B9C0E07417C0E0120C66
:1008350097E58124FAF581D001D002D003D004D008
:1008450006D007E53124F750030209A5EE600FE550
:1008550031700302099C7401B5310302099CE4BFA0
:10086500020104FE6017E53170030209937401B5B6
:1008750031030209937402B531030209939017CD30
:1008850075F080C007C006C004C003C002C00112D5
:100895000DEDD001D002D003D004D006D007C0079B
:1008A500C006C004C003C002C001120BA7E582D078
:1008B50001D002D003D004D006D00760E1C007C044
:1008C50006C004C003C002C001120BECA882D0010F
:1008D500D002D003D004D006D007E824D0FD6008AC
:1008E500BD0102800302098ABD014D8531F005F085
:1008F500ED800225E0D5F0FBF4FDC007C006C0057C
:10090500C003C004C001C00274DAC0E07417C0E0BF
:10091500120C97E58124FAF581D005D006D007EFB2
:100925007004ED528022BF0104ED529022EE600466
:10093500ED52A022ED52B0228531F005F074018010
:100945000225E0D5F0FBFDC007C006C005C003C009
:1009550004C001C00274F9C0E07417C0E0120C971E
:10096500E58124FAF581D005D006D007EF7004EDB6
:10097500428022BF0104ED429022EE6004ED42A0C8
:1009850022ED42B02290181975F080020DED9018F5
:100995007075F080020DED90182975F080020DED4F
:1009A50090186375F080020DED90190275F08002C4
:1009B5000DED1206C49019AD75F080120DED120BF8
:1009C500A7E58260F9120BECAE82BE3000920040C2
:1009D50014EE2485400F8E057F008D828F83C0061F
:1009E500120BD8D00690000DC006120BD8D006BE4B
:1009F50030028046BE31028049BE3202804CBE3391
:100A050002804FBE4302801EBE48028028BE63029C
:100A1500800FBE66028014BE68028019BE6D3B80E1
:100A25000F12009A8053120481804E12008580496E
:100A350012028E80441209AE803F75820012077A39
:100A4500803775820112077A802F75820212077A24
:100A5500802775820312077A801F20001CEE2485EB
:100A650040177F00C006C00774C9C0E07419C0E014
:100A7500120C97E58124FCF581120BA7E582600530
:100A8500120BEC80F49019DE75F080120DED020961
:010A9500C39D
:100E4D0048656C6C6F20576F726C642E2E2E0D548E
:100E5D0068697320697320612074657374207374DD
:100E6D0072696E672E0D002020202020202020206A
:100E7D002020202020695773202020202020202092
:100E8D002020202020202020202020202020202055
:100E9D002020202020202020202C575B0A202020DD
:100EAD002020202020202020202020574040572E79
:100EBD002020202020202020202020202020202025
:100ECD0020202020202020202020202020206740AE
:100EDD00405B0A20202020202020202020202020C0
:100EED0069404040404073202020202020202020B9
:100EFD0020202020202020202020202020202020E5
:100F0D0020206740404040570A20202020202020EC
:100F1D0020202020202040404040404040572E209F
:100F2D0020202020202020202020202020202020B4
:100F3D002020202020202C574040404040400A20B7
:100F4D0020202020202020202020205D40404040D7
:100F5D004040404040572E2020202C5F5F5F5F5F58
:100F6D005F5F2E202020202020202C6D404040400F
:100F7D0040404040690A20202020202020202020B1
:100F8D00202C404040404040404040404040574071
:100F9D00404040404040404040404040406D6D5FCB
:100FAD0067404040404040404040405B0A20202088
:100FBD002020202020202020644040404040404000
:100FCD004040404040404040404040404040404014
:100FDD004040404040404040404040404040404004
:100FED004040400A20202020202020202020694041
:100FFD00404040404040412A7E7E7E7E7E564D40A0
:10100D0040404040404040404041667E7E7E7E569E
:10101D002A404040404040404040690A2020202066
:10102D002020202020204040404040417E20202094
:10103D0020202020202020274D404040404040418E
:10104D006020202020202020202027564040404096
:10105D004040620A20202020202020202064404093
:10106D00402A602020202020202020202020202009
:10107D002059404040406620202020202020202064
:10108D0020202020205640404040402E0A20202085
:10109D002020202020694040416020202020202059
:1010AD0020202020202020202020204D4040502096
:1010BD002020202020202020202020202020202023
:1010CD0056404040620A202020202020202C404005
:1010DD0041202020202020202020202020202020E2
:1010ED0020202020274040202020202020202020AC
:1010FD0020202020202020202020214040402E0A8A
:10110D00202020202020205740502020202020204B
:10111D0020202020202020202020202020202040A2
:10112D005B20202020202020202020202020202077
:10113D002020202020274040570A2020202020203A
:10114D006440402020202020202020202020202C02
:10115D002020202020202020205D21202020202044
:10116D002020202020202020202020202020202072
:10117D005D4040620A20202020206740405B2020F7
:10118D0020202020202020202C574040732020207C
:10119D00202020205D202020202020202C57404082
:1011AD007320202020202020202020204040406936
:1011BD000A20202020694040405B20202020202054
:1011CD002020202057404040406920202020202012
:1011DD005D202020202020205740404040692020C5
:1011ED00202020202020202040404040690A20203F
:1011FD002069404040405B202020202020202020DE
:10120D002040404040405B2020202020205D2020B9
:10121D00202020202040404040405B2020202020E6
:10122D0020202020204040404040690A2020674077
:10123D00404040405B2020202020202020202040C6
:10124D004040404021202020202020405B202020B5
:10125D0020202040404040405B20202020202020A6
:10126D00202020404040404040690A2064404040DA
:10127D0040404040202020202020202020202140C0
:10128D004040502020202020206941572020202040
:10129D0020202140404041202020202020202020BF
:1012AD00205D40404040404040690A57404040402A
:1012BD004040404062202020202020202020202758
:1012CD007E7E2020202020202C5A2059692020208D
:1012DD00202020277E7E202020202020202020203E
:1012ED002C4040404040404040400A272A4040406A
:1012FD0040404040407320202020202020202020EE
:10130D0020202020202020205A602020592E20200F
:10131D002020202020202020202020202020202CB4
:10132D00574040404040404040410A2020274D401A
:10133D0040402A662A2A572E2020202020202020B7
:10134D002020202020202C5A2020202020567320C1
:10135D0020202020202020202020202020202C573D
:10136D002A7E7E7E4D404040660A20202020274D5B
:10137D0040202020202756732E20202020202020A2
:10138D002020202C7A7E20202020202020274E5F18
:10139D0020202020202020202020202C5A7E20209C
:1013AD002020206440500A2020204D404040202025
:1013BD0020202020207E2D5F5F20205F5F7A2F6010
:1013CD00202C676D5740406D6D5F20272B655F2E7C
:1013DD002020205F5F3D2F602020202020202C40EA
:1013ED004040400A2020202027564D572020202005
:1013FD002020202020202020202020202020674079
:10140D0040404040404040405720202020207E7EDC
:10141D007E202020202020202020202C5741660ACD
:10142D00202020202020207E4E2E20202020202015
:10143D0020202020202020202020404040404040DF
:10144D0040404040402120202020202020202020EE
:10145D002020202020202C5A600A2020202020200F
:10146D00202020562E20202020202020202020202B
:10147D0020202020214D40404040404040406620EB
:10148D002020202020202020202020202020206708
:10149D00662D0A20202020202020202020274E2EBF
:1014AD002020202020202020202020202020202728
:1014BD007E2A2A2A667E20202020202020202020FF
:1014CD002020202020202C5A600A2020202020209F
:1014DD0020202020202056632E2020202020202078
:1014ED0020202020202020202020202020202020EF
:1014FD0020202020202020202020205F5A660A2036
:10150D00202020202020202020202020207E655FEC
:10151D0020202020202020202020202020202020BE
:10152D00202020202020202020202020202C675922
:10153D007E0A202020202020202020202020202056
:10154D00202027563D5F20202020202020202020F5
:10155D002D4040442020202020202020202C675981
:10156D007E20270A2020202020202020202020201F
:10157D0020202020202020207E3D5F5F2E20202057
:10158D0020202020202020202C5F5F7A3D7E600AC5
:10159D00202020202020202020202020202020203E
:1015AD00202020202020202020277E7E7E2A3D3DC9
:1015BD00592A667E7E7E200044756D70696E6720A7
:1015CD00636F64653A00303030257820200030306C
:1015DD002578202000302578202000257820200037
:1015ED0025782000207C0025630044756D70696EA0
:1015FD00672072616D206D656D6F72793A0044756B
:10160D006D70696E6720636F646520696E20686513
:10161D00782066696C6520666F726D61743A003A68
:10162D0031300030303025780030302578003025CD
:10163D00780025780030300025780D002573003AAC
:10164D00303030303030303146460052657365747D
:10165D0074696E6720746865206D6963726F2E0002
:10166D004370752025732072756E6E696E672061EB
:10167D00742025734D487A0D0038394335320031C9
:10168D00312E3035393200537461727465642074B3
:10169D00696D657220322077697468207468203D09
:1016AD0020257820616E6420746C203D2025780DF6
:1016BD0000537461727465642073657269616C2086
:1016CD006174202573206270730D00313135323015
:1016DD003000537461727465642074696D65722095
:1016ED00302077697468207468203D20257820614A
:1016FD006E6420746C203D2025780D0048656C6C5F
:10170D006F20576F726C642E2E2E0D5468697320E6
:10171D0069732061207465737420737472696E67C8
:10172D002E0A5072696E74206120737472696E672F
:10173D002066726F6D20636F6465206D656D6F72CD
:10174D00793A0057686963682070696E2066726F18
:10175D006D203220746F2037206F6620706F727489
:10176D002025753F0D0057686963682070696E20EC
:10177D0066726F6D203320746F2037206F66207076
:10178D006F72742025753F0D00576869636820706E
:10179D00696E2066726F6D203020746F2037206F58
:1017AD006620706F72742025753F0D0050696E2094
:1017BD002575206F6620706F72742025753A200094
:1017CD0030206F66662C2031206F6E2E00536574AD
:1017DD0074696E672070696E202575206F662070A4
:1017ED006F7274202575206F6E2E0D005365747405
:1017FD00696E672070696E202575206F6620706F89
:10180D007274202575206F66662E0D00496E766107
:10181D006C696420616374696F6E2100536F72721D
:10182D0079207468652070696E73203020616E6454
:10183D002031206F6620706F7274203320617265C5
:10184D0020757365642062792073657269616C20FF
:10185D00706F72742E00496E76616C6964207069C8
:10186D006E2100536F727279207468652070696EF5
:10187D002030206F6E20706F7274203220697320BB
:10188D0074686520626C696E6B696E67206C656447
:10189D002C0A7468652070696E203120697320747C
:1018AD0068652073657269616C206368617261633C
:1018BD00746572207472616E736D697420626C69E7
:1018CD006E6B2C0A7468652070696E203220697306
:1018DD00207468652073657269616C20636861723C
:1018ED006163746572207265636569766520626CEB
:1018FD00696E6B2E00417661696C61626C65206367
:10190D006F6D616D6E6473206172653A0A302C20C3
:10191D00312C2032206F72203320746F2063686168
:10192D006E67652070696E20706F727473207374AA
:10193D00617475732E0A632064756D7020636F6416
:10194D0065206D656D6F72792E0A432064756D701B
:10195D0020636F6465206D656D6F727920696E20EF
:10196D0068657820666F726D61742E0A6D206475DE
:10197D006D702072616D206D656D6F72792E0A66C6
:10198D00207072696E742066656C69780A482070E3
:10199D0072696E7420746869732068656C702E00AE
:1019AD00496E7365727420636F6D6D616E642C206A
:1019BD006820666F722068656C702E00496E7661C6
:1019CD006C696420636F6D6D616E642025632E0DEF
:1019DD0000496E7365727420636F6D6D616E642C5A
:0D19ED00206820666F722068656C703A00FB
:100A9600C0E0C0F0C082C083850882850983E0F586
:100AA6000AD083D082D0F0D0E032AE82AF834396B4
:100AB600088E088F09120A96850A825396F722C075
:100AC600E0C0F0C082C083850882850983E50AF00C
:100AD600D083D082D0F0D0E032AF824396084396DE
:100AE60010850B08850C098F0A120AC55396EF5319
:100AF60096F7850B82850C83020AB0AF82753300A8
:100B0600753400753200753500C201D2B0D2B175A8
:100B1600985053C8F043C8308FCD850ECC8FCB8507
:100B26000ECAD2CAD2BCD2AFD2AC22C0E0C0D075F7
:100B3600D0101098028015E533FF04F533EF243604
:100B4600F8A69974F0253350037533001099028086
:100B560020E532B53504C2018017D201E532FF0423
:100B6600F532EF2446F9879974F025325003753231
:100B76000075A61E75A6E1D0D0D0E032AF82E5356D
:100B86002446F8A607AE350EBE100040027E00EEE3
:100B9600B5320280FA8E35200102D299B2A18F8237
:100BA6002275A61E75A6E1E534B53303D38001C3CD
:100BB600B39202E433F58222E534FF04F534EF24E0
:100BC60036F9870774F025345003753400B2A28FC6
:100BD6008222AE82AF83C007C006120B82D006D037
:100BE600078E828F8322120BBE7E008E8322AF82F7
:100BF6005389F08F8C850E8AD2A9D2AFD28C2285EA
:100C0600568285578322C021C0E0C0F0C082C083CF
:100C1600C007C006C005C004C003C002C001C000B2
:100C2600C0D075D018AE56AF5774012EF556E43FB6
:100C3600F557C3E5569558E55795595006855658C4
:100C4600855759750E97750F018556828557837599
:100C5600D000120DA075D018E5828583F045F0709E
:100C660013C3E5589556E559955750088556588546
:100C76005759B2A0D0D0D000D001D002D003D004B2
:100C8600D005D006D007D083D082D0F0D0E0D021D6
:010C9600322B
:06005800E478FFF6D8FD7C
:100036007900E94400601B7A009019FA780175A0EE
:1000460000E493F2A308B8000205A0D9F4DAF27529
:02005600A0FF09
:100C9700C00D85810DE50D24FDF886831886821821
:100CA700E493A324DB600C24256005120D8580F0F6
:100CB700020D9DD2D5E493A3C083C082B47314867A
:100CC700F018868318868218120E2D6054A3120D11
:100CD7008580F5B4630818E618120D858043B4645F
:100CE70017E630E74618E6F42401F608E6F4340080
:100CF700F6742D120D858033B4782D86831886827D
:100D070018E4120D76E583120D75E583120D76E56D
:100D170082120D75E582120D7630D5057430120DED
:100D270085D082D083020CA7B475F6E6FA18E6F9E7
:100D3700187C107D27120D60FF7CE87D03120D6083
:100D4700C4F5837C647D00120D604283E975F00A67
:100D570084C445F0F582EF80A97B000BC3E99CF9B9
:100D6700EA9DFA50F61BE92CF9EA3DFAEB22C45446
:100D77000F700320D51FC2D52490D43440D4C0832C
:100D8700C082C0F0F582E8C0E0120BD8D0E0F8D0FE
:100D9700F0D082D08322D00D22E50E450F60467A2F
:100DA70001E50E25E0F50EE50F334012F50FE5825C
:100DB700950EE583950F40030A80E6C3E50F13F50B
:100DC7000FE50E13F50EC3E582950EF5F0E5839555
:100DD7000F4005F58385F082C3E50F13F50FE50E88
:060DE70013F50EDAE12213
:10005E007800E84400600A790175A000E4F309D83D
:10006E00FC7800E84400600C7900900001E4F0A3F5
:04007E00D8FCD9FAD7
:100DED00AD82AE83AFF08D828E838FF0120E2DFC0F
:100DFD0060280DBD00010E7B008C828B83C007C067
:100E0D0006C005120BD8AB82AC83D005D006D00737
:100E1D00BBFFD3BCFFD090FFFF2290000A020BD87E
:0D002900758159120E49E582600302002620
:100E2D0020F71430F6148883A88220F507E6A883EE
:100E3D0075830022E280F7E49322E022758200227E
:00000001FF
