:04000000020029329F
:03000B000210716F
:0100130032BA
:01001B0032B2
:03002300020F9633
:0300820002002653
:03002600020E0BBC
:2000850075A61E75A6E12290000D12103D9012DF75F08012125890000D02103D901A3075EB
:2000A500F080121258900000120F07E58204FFBF5B027F41E4F50BF50C8F82120F367E0086
:2000C5007F008E048F05C374FF9C74079D5003020262C3EC9410ED9400501FC007C006C043
:2000E50006C0077465C0E0741AC0E0121102E58124FCF581D006D007806574FF2D401FC015
:2001050007C006C006C007746DC0E0741AC0E0121102E58124FCF581D006D007804174F0DE
:200125002D401FC007C006C006C0077474C0E0741AC0E0121102E58124FCF581D006D00790
:20014500801DC007C006C006C007747AC0E0741AC0E0121102E58124FCF581D006D0077DDC
:2001650000BD100050648D037C008E018F02EB29FBEC3AFC8B828C83C007C006C005120F0D
:2001850007AC82D005D006D007BC10005016900030C007C006C005C00412103DD004D00593
:2001A500D006D0077B00C007C006C005C004C003747FC0E0741AC0E0121102E58124FCF5D8
:2001C50081D005D006D0070D8097C007C0067483C0E0741AC0E012110215811581D006D0AA
:2001E500077D00BD1000504F8D037C00EB2EF582EC3FF583C007C006C005120F07AC82D053
:2002050005D006D007BC20004005EC248150027C2E7B00C007C006C005C004C0037486C06B
:20022500E0741AC0E0121102E58124FCF581D005D006D0070D80AC90007CC007C006121014
:200245003D90000D12103DD006D0078E048F0574102CFCE43DFD8C068D070200C790000D37
:2002650012103D90000D02103D901A8975F0801212587E007F008E048F05C374FF9C74072A
:200285009D5003020480C007C006C005C00474AFC0E0741AC0E012110215811581D004D0E7
:2002A50005D006D0077A107B00C3EC9410ED94005028C007C006C003C002C006C00774B370
:2002C500C0E0741AC0E0121102E58124FCF581D002D003D006D00702035C74FF2D4027C0B0
:2002E50007C006C003C002C006C00774B9C0E0741AC0E0121102E58124FCF581D002D00359
:20030500D006D007805174F02D4027C007C006C003C002C006C00774BEC0E0741AC0E012B1
:200325001102E58124FCF581D002D003D006D0078025C007C006C003C002C006C00774C2DD
:20034500C0E0741AC0E0121102E58124FCF581D002D003D006D0078F057C00ED2AFDEC3B0C
:20036500FC8E027B00EA2DFDEB3CFCC007C006C005C00474C5C0E0741AC0E0121102158162
:200385001581D004D005D006D0077B00BB100040030204208B017A00E92EF582EA3FF58388
:2003A500C007C006C005C004C003120F07AA82D003D004D005D006D007BA1000501E90001A
:2003C50030C007C006C005C004C003C00212103DD002D003D004D005D006D0078A017A00EE
:2003E500C007C006C005C004C003C002C001C001C00274C2C0E0741AC0E0121102E5812466
:20040500FCF581D001D002D003D004D005D006D007E92DFDEA3CFC0B020391EDF4FDECF405
:200425007C000DBD00010C8D027B00C3EA9410EB94005016900030C007C006C005C004123C
:20044500103DD004D005D006D0077C00C007C006C005C00474C8C0E0741AC0E0121102E54E
:200465008124FCF581D006D0078E048F0574102CFCE43DFD8C068D0702027B74CFC0E074C7
:200485001AC0E07480C0E074CCC0E0741AC0E0121102E58124FBF58190000D12103D90004F
:2004A5000D02103D7D007E007F80901ADB75F080C007C006C005121258D005D006D007E443
:2004C500F522F523C374FF9522742F95235003020697C3E5229410E52394005023C007C0AA
:2004E50006C005C022C0237465C0E0741AC0E0121102E58124FCF581D005D006D00780732A
:2005050074FF25234023C007C006C005C022C023746DC0E0741AC0E0121102E58124FCF552
:2005250081D005D006D007804A74F025234023C007C006C005C022C0237474C0E0741AC0ED
:20054500E0121102E58124FCF581D005D006D0078021C007C006C005C022C023747AC0E0CD
:20056500741AC0E0121102E58124FCF581D005D006D0078D008E018F02E4F524F525C3E539
:20058500249410E5259400505D888289838AF0121298FCBC10005012900030C002C001C0CA
:2005A5000012103DD000D001D002888289838AF0121298FCA3A882A9837B00C002C001C065
:2005C50000C004C003747FC0E0741AC0E0121102E58124FCF581D000D001D0020524E4B578
:2005E500249C05258098C002C001C0007483C0E0741AC0E012110215811581D000D001D02A
:2006050002E824F0FCE934FFFB75260074F0252640548C828B838AF0121298F8B820004084
:2006250005E82481501490002EC004C003C00212103DD002D003D00480237900C004C0033D
:20064500C002C000C0017486C0E0741AC0E0121102E58124FCF581D002D003D0040CBC0028
:20066500010B052680A68C058B068A0790007CC007C006C00512103D90000D12103DD005D7
:20068500D006D00774102522F522E43523F5230204C990000D02103D7D007E007F40901A53
:2006A500E975F080C007C006C005121258D005D006D007E4F527F528C374FF9527E4952867
:2006C500500302088AC3E5279410E52894005023C007C006C005C027C0287465C0E0741A7F
:2006E500C0E0121102E58124FCF581D005D006D007807374FF25284023C007C006C005C08A
:2007050027C028746DC0E0741AC0E0121102E58124FCF581D005D006D007804A74F02528F8
:200725004023C007C006C005C027C0287474C0E0741AC0E0121102E58124FCF581D005D0B4
:2007450006D0078021C007C006C005C027C028747AC0E0741AC0E0121102E58124FCF58118
:20076500D005D006D0078D008E018F02E4F529F52AC3E5299410E52A9400505D8882898349
:200785008AF0121298FCBC10005012900030C002C001C00012103DD000D001D0028882898C
:2007A500838AF0121298FCA3A882A9837B00C002C001C000C004C003747FC0E0741AC0E080
:2007C500121102E58124FCF581D000D001D0020529E4B5299C052A8098C002C001C00074F6
:2007E50083C0E0741AC0E012110215811581D000D001D002E824F0FCE934FFFB752B0074BC
:20080500F0252B40548C828B838AF0121298F8B820004005E82481501490002EC004C00362
:20082500C00212103DD002D003D00480237900C004C003C002C000C0017486C0E0741AC04B
:20084500E0121102E58124FCF581D002D003D0040CBC00010B052B80A68C058B068A0790AC
:20086500007CC007C006C00512103D90000D12103DD005D006D00774102527F527E435289B
:20088500F5280206BD90000D02103D752C00752D00752E80901AFD75F0801212587B007C20
:2008A50000C374FF9B742F9C5003020A9FC004C00374AFC0E0741AC0E0121102158115815C
:2008C500D003D00479107A00C3EB9410EC94005028C004C003C002C001C003C00474B3C0A7
:2008E500E0741AC0E0121102E58124FCF581D001D002D003D00402097B74FF2C4027C0042A
:20090500C003C002C001C003C00474B9C0E0741AC0E0121102E58124FCF581D001D002D076
:2009250003D004805174F02C4027C004C003C002C001C003C00474BEC0E0741AC0E012115F
:2009450002E58124FCF581D001D002D003D0048025C004C003C002C001C003C00474C2C01E
:20096500E0741AC0E0121102E58124FCF581D001D002D003D0048C0088077800EF29FFE867
:200985003AF88B057E00ED2FF52FEE38F530C004C00374C5C0E0741AC0E012110215811529
:2009A50081D003D004AD2CAA2DA92E7800B810004003020A3F8D828A8389F0121298FFBFA6
:2009C5001000501E900030C005C004C003C002C001C00012103DD000D001D002D003D004CC
:2009E500D0058D828A8389F0121298FF7E00C005C004C003C002C001C000C007C00674C2FD
:200A0500C0E0741AC0E0121102E58124FCF581D000D001D002D003D004D0058D828A83894E
:200A2500F0121298FFA3AD82AA837E00EF252FF52FEE3530F530080209B28D2C8A2D892EBE
:200A4500E52FF4FEE530F47F000EBE00010F8E027D00C3EA9410ED94005016900030C0075B
:200A6500C006C004C00312103DD003D004D006D0077F00C004C003C006C00774C8C0E0748E
:200A85001AC0E0121102E58124FCF581D003D00474102BFBE43CFC0208A674CFC0E0741AE8
:200AA500C0E07480C0E074CCC0E0741AC0E0121102E58124FBF58190000D12103D90000D36
:200AC50002103D901B1E75F08012125880FE43A7E043A70843A70475A61E75A6E1438F0168
:200AE500750ECA7582FF120F6312008C7454C0E0741BC0E07480C0E0744CC0E0741BC0E0D2
:200B05007480C0E07433C0E0741BC0E0121102E58124F8F581E58F30E009901B5775F08035
:200B2500121258E58730E40E901B6B75F0801212585387EF8009901B7675F08012125890CB
:200B45001B8175F0801212587580FF7590FF75A0FF75B0FF74CAC0E0E4C0E014C0E0E4C0A9
:200B6500E07492C0E0741BC0E0121102E58124FAF58174D6C0E0741BC0E07480C0E074BCBF
:200B8500C0E0741BC0E0121102E58124FBF581750EED7582DE12105974EDC0E0E4C0E074A8
:200BA500DEC0E0E4C0E074DCC0E0741BC0E0121102E58124FAF581901C0675F080121258DD
:200BC5009012B875F080021258AF82E4BF030104FE60238F047D00C007C006C004C005746E
:200BE5004DC0E0741CC0E0121102E58124FCF581D006D0078047BF02238F047D00C007C0C3
:200C050006C004C0057470C0E0741CC0E0121102E58124FCF581D006D00780218F047D000D
:200C2500C007C006C004C0057493C0E0741CC0E0121102E58124FCF581D006D007C007C06D
:200C45000612100CE582D006D00760F1C007C006121051AC82D006D007EC24D0F5318F0383
:200C65007C00A9317A00C007C006C004C003C002C001C003C004C001C00274B6C0E0741CA4
:200C8500C0E0121102E58124FAF581D001D002D003D004D006D007E53124F75003020DF90D
:200CA500EE600FE5317003020DF07401B53103020DF0E4BF020104FE6017E5317003020D36
:200CC500E77401B53103020DE77402B53103020DE7901CCA75F080C007C006C004C003C050
:200CE50002C001121258D001D002D003D004D006D007C007C006C004C003C002C001121000
:200D05000CE582D001D002D003D004D006D00760E1C007C006C004C003C002C00112105119
:200D2500A882D001D002D003D004D006D007E824D0FD6008BD01028003020DDEBD014D858C
:200D450031F005F0ED800225E0D5F0FBF4FDC007C006C005C003C004C001C00274D7C0E00C
:200D6500741CC0E0121102E58124FAF581D005D006D007EF7004ED528022BF0104ED5290C6
:200D850022EE6004ED52A022ED52B0228531F005F07401800225E0D5F0FBFDC007C006C027
:200DA50005C003C004C001C00274F6C0E0741CC0E0121102E58124FAF581D005D006D00744
:200DC500EF7004ED428022BF0104ED429022EE6004ED42A022ED42B022901D1675F0800247
:200DE5001258901D6D75F080021258901D2675F080021258901D6075F080021258901DFFEB
:200E050075F080021258120AD3901F0175F08012125812008512100CE58260F6121051AED9
:200E250082AF83BE30028067BE3103020E9CBE3203020EA4BE3303020EACBE4302802DBEBF
:200E450045028032BE48028041BE63028019BE6502801EBE66028023BE6802802DBE6D0281
:200E6500801EBE724A801E1204A98064120890805F1200A1805A12026E805512008C805039
:200E850012069D804B120AC88046120E028041758200120BCE8039758201120BCE8031759C
:200EA5008202120BCE8029758203120BCE8021BE3000401CEE248540177F00C006C00774D7
:200EC5001DC0E0741FC0E0121102E58124FCF58112100CE582600512105180F4901F3275C5
:080EE500F080121258020E17F2
:2012B80048656C6C6F20576F726C642E2E2E0D546869732069732061207465737420737467
:2012D80072696E672E0D002020202020202020202020202020695773202020202020202018
:2012F800202020202020202020202020202020202020202020202020202C575B0A2020206E
:201318002020202020202020202020574040572E20202020202020202020202020202020F9
:2013380020202020202020202020202020206740405B0A20202020202020202020202020E9
:20135800694040404040732020202020202020202020202020202020202020202020202039
:2013780020206740404040570A2020202020202020202020202040404040404040572E2048
:20139800202020202020202020202020202020202020202020202C574040404040400A2048
:2013B80020202020202020202020205D404040404040404040572E2020202C5F5F5F5F5F2C
:2013D8005F5F2E202020202020202C6D4040404040404040690A20202020202020202020DD
:2013F800202C4040404040404040404040405740404040404040404040404040406D6D5F79
:2014180067404040404040404040405B0A20202020202020202020206440404040404040E4
:20143800404040404040404040404040404040404040404040404040404040404040404094
:201458004040400A202020202020202020206940404040404040412A7E7E7E7E7E564D407D
:2014780040404040404040404041667E7E7E7E562A404040404040404040690A20202020C2
:201498002020202020204040404040417E20202020202020202020274D4040404040404100
:2014B800602020202020202020202756404040404040620A20202020202020202064404027
:2014D800402A6020202020202020202020202020205940404040662020202020202020208B
:2014F80020202020205640404040402E0A202020202020202069404041602020202020201C
:2015180020202020202020202020204D404050202020202020202020202020202020202016
:2015380056404040620A202020202020202C40404120202020202020202020202020202064
:201558002020202027404020202020202020202020202020202020202020214040402E0AD3
:201578002020202020202057405020202020202020202020202020202020202020202040AC
:201598005B2020202020202020202020202020202020202020274040570A20202020202090
:2015B8006440402020202020202020202020202C2020202020202020205D21202020202045
:2015D800202020202020202020202020202020205D4040620A20202020206740405B202088
:2015F80020202020202020202C57404073202020202020205D202020202020202C5740403D
:20161800732020202020202020202020404040690A20202020694040405B202020202020E8
:20163800202020205740404040692020202020205D20202020202020574040404069202055
:20165800202020202020202040404040690A20202069404040405B202020202020202020BB
:201678002040404040405B2020202020205D2020202020202040404040405B20202020205F
:2016980020202020204040404040690A20206740404040405B20202020202020202020401D
:2016B8004040404021202020202020405B20202020202040404040405B202020202020205B
:2016D800202020404040404040690A206440404040404040202020202020202020202140BA
:2016F80040405020202020202069415720202020202021404040412020202020202020203F
:20171800205D40404040404040690A574040404040404040622020202020202020202027E1
:201738007E7E2020202020202C5A205969202020202020277E7E202020202020202020204A
:201758002C4040404040404040400A272A40404040404040407320202020202020202020F7
:2017780020202020202020205A602020592E20202020202020202020202020202020202C84
:20179800574040404040404040410A2020274D4040402A662A2A572E2020202020202020B2
:2017B8002020202020202C5A202020202056732020202020202020202020202020202C57FF
:2017D8002A7E7E7E4D404040660A20202020274D40202020202756732E202020202020201E
:2017F8002020202C7A7E20202020202020274E5F20202020202020202020202C5A7E2020F5
:201818002020206440500A2020204D404040202020202020207E2D5F5F20205F5F7A2F6095
:20183800202C676D5740406D6D5F20272B655F2E2020205F5F3D2F602020202020202C40E6
:201858004040400A2020202027564D5720202020202020202020202020202020202067401E
:2018780040404040404040405720202020207E7E7E202020202020202020202C5741660A6B
:20189800202020202020207E4E2E20202020202020202020202020202020404040404040D6
:2018B800404040404021202020202020202020202020202020202C5A600A202020202020FF
:2018D800202020562E202020202020202020202020202020214D4040404040404040662038
:2018F80020202020202020202020202020202067662D0A20202020202020202020274E2E09
:20191800202020202020202020202020202020277E2A2A2A667E2020202020202020202088
:201938002020202020202C5A600A20202020202020202020202056632E2020202020202098
:201958002020202020202020202020202020202020202020202020202020205F5A660A20C6
:20197800202020202020202020202020207E655F202020202020202020202020202020206D
:20199800202020202020202020202020202C67597E0A20202020202020202020202020205B
:2019B800202027563D5F202020202020202020202D4040442020202020202020202C675979
:2019D8007E20270A20202020202020202020202020202020202020207E3D5F5F2E20202099
:2019F80020202020202020202C5F5F7A3D7E600A2020202020202020202020202020202046
:201A1800202020202020202020277E7E7E2A3D3D592A667E7E7E200044756D70696E6720D2
:201A3800656570726F6D20636F6E74656E7420616E64206368616E67696E67206669727365
:201A580074206368617261637465723A00303030257820200030302578202000302578205C
:201A78002000257820200025782000207C0025630044756D70696E6720656570726F6D20D4
:201A9800636F6E74656E7420696E2068657820666F726D61743A003A31300030303025782C
:201AB8000030302578003025780025780030300025780D002573003A30303030303030314A
:201AD80046460044756D70696E6720636F64653A0044756D70696E672072616D206D656D06
:201AF8006F72793A0044756D70696E6720636F646520696E206865782066696C6520666F9A
:201B1800726D61743A00526573657474696E6720746865206D6963726F2E004370752025D4
:201B3800732072756E6E696E672061742025734D487A0D00383953383235330035300044F1
:201B58006F75626C652073797374656D20636C6F636B00436F6C64207265736574005761E8
:201B7800726D20726573657400456E61626C6564207761746368646F67005374617274659C
:201B9800642074696D657220322077697468207468203D20257820616E6420746C203D2074
:201BB80025780D00537461727465642073657269616C206174202573206270730D00353761
:201BD80036303000537461727465642074696D657220302077697468207468203D202578FD
:201BF80020616E6420746C203D2025780D0048656C6C6F20576F726C642E2E2E0D5468697B
:201C1800732069732061207465737420737472696E672E0A5072696E74206120737472697D
:201C38006E672066726F6D20636F6465206D656D6F72793A0057686963682070696E206655
:201C5800726F6D203220746F2037206F6620706F72742025753F0D005768696368207069A6
:201C78006E2066726F6D203320746F2037206F6620706F72742025753F0D0057686963688A
:201C98002070696E2066726F6D203020746F2037206F6620706F72742025753F0D005069AE
:201CB8006E202575206F6620706F72742025753A200030206F66662C2031206F6E2E005370
:201CD800657474696E672070696E202575206F6620706F7274202575206F6E2E0D005365BC
:201CF8007474696E672070696E202575206F6620706F7274202575206F66662E0D00496EA4
:201D180076616C696420616374696F6E2100536F727279207468652070696E7320302061B1
:201D38006E642031206F6620706F72742033206172652075736564206279207365726961E3
:201D58006C20706F72742E00496E76616C69642070696E2100536F7272792074686520708D
:201D7800696E2030206F6E20706F727420322069732074686520626C696E6B696E67206C99
:201D980065642C0A7468652070696E2031206973207468652073657269616C206368617278
:201DB8006163746572207472616E736D697420626C696E6B2C0A7468652070696E203220EA
:201DD8006973207468652073657269616C206368617261637465722072656365697665201E
:201DF800626C696E6B2E00417661696C61626C6520636F6D616D6E6473206172653A0A30CE
:201E18002C20312C2032206F72203320746F206368616E67652070696E20706F72747320F3
:201E38007374617475732E0A632064756D7020636F6465206D656D6F72792E0A432064758D
:201E58006D7020636F6465206D656D6F727920696E2068657820666F726D61742E0A652057
:201E780064756D7020656570726F6D206D656D6F72792E0A452064756D7020656570726FA5
:201E98006D206D656D6F727920696E2068657820666F726D61742E0A6D2064756D702072F2
:201EB800616D206D656D6F72792E0A66207072696E742066656C69780A72207265736574A1
:201ED80020746865206D6963726F636F6E74726F6C6C65722E0A48207072696E7420746842
:201EF80069732068656C702E00496E7365727420636F6D6D616E642C206820666F722068E0
:201F1800656C702E00496E76616C696420636F6D6D616E642025632E0D00496E736572741C
:161F380020636F6D6D616E642C206820666F722068656C703A0076
:200EED00C0E0C0F0C082C083850882850983E0F50AD083D082D0F0D0E032AE82AF8343968F
:200F0D00088E088F09120EED850A825396F722C0E0C0F0C082C083850882850983E50AF09A
:200F2D00D083D082D0F0D0E032AF82439608439610850B08850C098F0A120F1C5396EF532F
:160F4D0096F7850B82850C83C007120F07AE82D007EEB507ED222C
:200F6300AF8275A000753300753400753200753500C200D2B0D2B175985053C8F043C8301C
:200F83008FCD850ECC8FCB850ECAD2CAD2BCD2AFD2AC22C0E0C0D075D0101098028015E5E8
:200FA30033FF04F533EF2436F8A69974F0253350037533001099028020E532B53504C20087
:200FC3008017D200E532FF04F532EF2446F9879974F02532500375320075A61E75A6E1D038
:200FE300D0D0E032AF82E5352446F8A607AE350EBE100040027E00EEB5320280FA8E35202F
:201003000002D299B2A18F822275A61E75A6E1E534B53303D38001C3B39201E433F5822294
:20102300E534FF04F534EF2436F9870774F025345003753400B2A28F8222AE82AF83C0072F
:16104300C006120FE7D006D0078E828F83221210237E008E8322E2
:20105900AF825389F08F8C850E8AD2A9D2AFD28C2285568285578322C021C0E0C0F0C08275
:20107900C083C007C006C005C004C003C002C001C000C0D075D01843A70843A704AE56AF78
:201099005774012EF556E43FF557C3E5569558E55795595006855658855759750E2E750F7B
:2010B9000385568285578375D00012120B75D018E5828583F045F07013C3E5589556E55947
:2010D90095575008855658855759B2A0D0D0D000D001D002D003D004D005D006D007D0836A
:0910F900D082D0F0D0E0D0213209
:06005800E478FFF6D8FD7C
:200036007900E94400601B7A00901F4E780175A000E493F2A308B8000205A0D9F4DAF27503
:02005600A0FF09
:20110200C00D85810DE50D24FDF8868318868218E493A324DB600C242560051211F080F0EB
:20112200021208D2D5E493A3C083C082B4731486F0188683188682181212986054A312110B
:20114200F080F5B4630818E6181211F08043B46417E630E74618E6F42401F608E6F4340088
:20116200F6742D1211F08033B4782D868318868218E41211E1E5831211E0E5831211E1E5D2
:20118200821211E0E5821211E130D50574301211F0D082D083021112B475F6E6FA18E6F9DC
:2011A200187C107D271211CBFF7CE87D031211CBC4F5837C647D001211CB4283E975F00A82
:2011C20084C445F0F582EF80A97B000BC3E99CF9EA9DFA50F61BE92CF9EA3DFAEB22C45404
:2011E2000F700320D51FC2D52490D43440D4C083C082C0F0F582E8C0E012103DD0E0F8D0E5
:09120200F0D082D08322D00D222D
:20120B00E50E450F60467A01E50E25E0F50EE50F334012F50FE582950EE583950F40030A80
:20122B0080E6C3E50F13F50FE50E13F50EC3E582950EF5F0E583950F4005F58385F082C331
:0D124B00E50F13F50FE50E13F50EDAE122A5
:20005E007800E84400600A790175A000E4F309D8FC7800E84400600C7900900001E4F0A3A0
:04007E00D8FCD9FAD7
:20125800AD82AE83AFF08D828E838FF0121298FC60280DBD00010E7B008C828B83C007C0A1
:2012780006C00512103DAB82AC83D005D006D007BBFFD3BCFFD090FFFF2290000A02103D9D
:0D0029007581591212B4E5826003020026B1
:1C12980020F71430F6148883A88220F507E6A88375830022E280F7E49322E02265
:0412B400758200221D
:00000001FF
