:04000000020029329F
:03000B0002108F51
:0100130032BA
:01001B0032B2
:03002300020FB415
:0300820002002653
:03002600020E0BBC
:1000850075A61E75A6E12290000D12105B9012F761
:1000950075F08012127090000D02105B901A487571
:1000A500F080121270900000120F28E58204FFBF45
:1000B5005B027F41E4F50BF50C8F82120F577E0032
:1000C5007F008E048F05C374FF9C74079D50030247
:1000D5000262C3EC9410ED9400501FC007C006C027
:1000E50006C007747DC0E0741AC0E012111AE581DC
:1000F50024FCF581D006D007806574FF2D401FC014
:1001050007C006C006C0077485C0E0741AC0E012B7
:10011500111AE58124FCF581D006D007804174F0E1
:100125002D401FC007C006C006C007748CC0E07410
:100135001AC0E012111AE58124FCF581D006D0071A
:10014500801DC007C006C006C0077492C0E0741ABF
:10015500C0E012111AE58124FCF581D006D0077D97
:1001650000BD100050648D037C008E018F02EB29C9
:10017500FBEC3AFC8B828C83C007C006C005120FCE
:1001850028AC82D005D006D007BC100050169000D0
:1001950030C007C006C005C00412105BD004D005EE
:1001A500D006D0077B00C007C006C005C004C00349
:1001B5007497C0E0741AC0E012111AE58124FCF5A9
:1001C50081D005D006D0070D8097C007C006749B67
:1001D500C0E0741AC0E012111A15811581D006D03D
:1001E500077D00BD1000504F8D037C00EB2EF5827E
:1001F500EC3FF583C007C006C005120F28AC82D0BE
:1002050005D006D007BC20004005EC248150027CB7
:100215002E7B00C007C006C005C004C003749EC085
:10022500E0741AC0E012111AE58124FCF581D005AD
:10023500D006D0070D80AC90007CC007C006121018
:100245005B90000D12105BD006D0078E048F0574ED
:10025500102CFCE43DFD8C068D070200C790000DB7
:1002650012105B90000D02105B901AA175F08012C0
:1002750012707E007F008E048F05C374FF9C740787
:100285009D5003020480C007C006C005C00474C7A2
:10029500C0E0741AC0E012111A15811581D004D07E
:1002A50005D006D0077A107B00C3EC9410ED9400BE
:1002B5005028C007C006C003C002C006C00774CBE3
:1002C500C0E0741AC0E012111AE58124FCF581D052
:1002D50002D003D006D00702035C74FF2D4027C06F
:1002E50007C006C003C002C006C00774D1C0E074D1
:1002F5001AC0E012111AE58124FCF581D002D00361
:10030500D006D007805174F02D4027C007C006C025
:1003150003C002C006C00774D6C0E0741AC0E0125C
:10032500111AE58124FCF581D002D003D006D0074F
:100335008025C007C006C003C002C006C00774DA26
:10034500C0E0741AC0E012111AE58124FCF581D0D1
:1003550002D003D006D0078F057C00ED2AFDEC3BCB
:10036500FC8E027B00EA2DFDEB3CFCC007C006C0FD
:1003750005C00474DDC0E0741AC0E012111A1581BD
:100385001581D004D005D006D0077B00BB100040F6
:10039500030204208B017A00E92EF582EA3FF583FA
:1003A500C007C006C005C004C003120F28AA82D02A
:1003B50003D004D005D006D007BA1000501E900017
:1003C50030C007C006C005C004C003C00212105BE0
:1003D500D002D003D004D005D006D0078A017A0018
:1003E500C007C006C005C004C003C002C001C001EB
:1003F500C00274DAC0E0741AC0E012111AE5812453
:10040500FCF581D001D002D003D004D005D006D0B0
:1004150007E92DFDEA3CFC0B020391EDF4FDECF43C
:100425007C000DBD00010C8D027B00C3EA9410EB2E
:1004350094005016900030C007C006C005C00412D5
:10044500105BD004D005D006D0077C00C007C006DD
:10045500C005C00474E0C0E0741AC0E012111AE5CA
:100465008124FCF581D006D0078E048F0574102CED
:10047500FCE43DFD8C068D0702027B74E7C0E07449
:100485001AC0E07480C0E074E4C0E0741AC0E012E1
:10049500111AE58124FBF58190000D12105B900087
:1004A5000D02105B7D007E007F80901AF375F08051
:1004B500C007C006C005121270D005D006D007E4EB
:1004C500F522F523C374FF9522742F95235003025B
:1004D5000697C3E5229410E52394005023C007C076
:1004E50006C005C022C023747DC0E0741AC0E012A6
:1004F500111AE58124FCF581D005D006D00780735B
:1005050074FF25234023C007C006C005C022C023B1
:100515007485C0E0741AC0E012111AE58124FCF557
:1005250081D005D006D007804A74F025234023C02A
:1005350007C006C005C022C023748CC0E0741AC071
:10054500E012111AE58124FCF581D005D006D0070B
:100555008021C007C006C005C022C0237492C0E038
:10056500741AC0E012111AE58124FCF581D005D07A
:1005750006D0078D008E018F02E4F524F525C3E52D
:10058500249410E5259400505D888289838AF012B1
:1005950012B0FCBC10005012900030C002C001C067
:1005A5000012105BD000D001D002888289838AF0C6
:1005B5001212B0FCA3A882A9837B00C002C001C0AF
:1005C50000C004C0037497C0E0741AC0E012111A89
:1005D500E58124FCF581D000D001D0020524E4B5E5
:1005E500249C05258098C002C001C000749BC0E012
:1005F500741AC0E012111A15811581D000D001D0EE
:1006050002E824F0FCE934FFFB75260074F025268A
:1006150040548C828B838AF01212B0F8B8200040C7
:1006250005E82481501490002EC004C003C00212B6
:10063500105BD002D003D00480237900C004C0032E
:10064500C002C000C001749EC0E0741AC0E012115F
:100655001AE58124FCF581D002D003D0040CBC003E
:10066500010B052680A68C058B068A0790007CC0A9
:1006750007C006C00512105B90000D12105BD00577
:10068500D006D00774102522F522E43523F5230280
:1006950004C990000D02105B7D007E007F40901B19
:1006A5000175F080C007C006C005121270D005D0D4
:1006B50006D007E4F527F528C374FF9527E49528A8
:1006C500500302088AC3E5279410E52894005023B7
:1006D500C007C006C005C027C028747DC0E0741AD5
:1006E500C0E012111AE58124FCF581D005D006D0B1
:1006F50007807374FF25284023C007C006C005C0C6
:1007050027C0287485C0E0741AC0E012111AE5816B
:1007150024FCF581D005D006D007804A74F0252841
:100725004023C007C006C005C027C028748CC0E0A0
:10073500741AC0E012111AE58124FCF581D005D0A8
:1007450006D0078021C007C006C005C027C0287491
:1007550092C0E0741AC0E012111AE58124FCF581FB
:10076500D005D006D0078D008E018F02E4F529F55E
:100775002AC3E5299410E52A9400505D888289836F
:100785008AF01212B0FCBC10005012900030C0026A
:10079500C001C00012105BD000D001D00288828950
:1007A500838AF01212B0FCA3A882A9837B00C00241
:1007B500C001C000C004C0037497C0E0741AC0E053
:1007C50012111AE58124FCF581D000D001D0020573
:1007D50029E4B5299C052A8098C002C001C000748F
:1007E5009BC0E0741AC0E012111A15811581D00062
:1007F500D001D002E824F0FCE934FFFB752B00742E
:10080500F0252B40548C828B838AF01212B0F8B8F5
:1008150020004005E82481501490002EC004C00338
:10082500C00212105BD002D003D00480237900C02F
:1008350004C003C002C000C001749EC0E0741AC0A9
:10084500E012111AE58124FCF581D002D003D00411
:100855000CBC00010B052B80A68C058B068A079026
:10086500007CC007C006C00512105B90000D121079
:100875005BD005D006D00774102527F527E4352869
:10088500F5280206BD90000D02105B752C00752D34
:1008950000752E80901B1575F0801212707B007C00
:1008A50000C374FF9B742F9C5003020A9FC004C0B1
:1008B5000374C7C0E0741AC0E012111A15811581BE
:1008C500D003D00479107A00C3EB9410EC94005057
:1008D50028C004C003C002C001C003C00474CBC05B
:1008E500E0741AC0E012111AE58124FCF581D001EB
:1008F500D002D003D00402097B74FF2C4027C0042A
:10090500C003C002C001C003C00474D1C0E0741AA2
:10091500C0E012111AE58124FCF581D001D002D086
:1009250003D004805174F02C4027C004C003C002DA
:10093500C001C003C00474D6C0E0741AC0E012112F
:100945001AE58124FCF581D001D002D003D00480C2
:1009550025C004C003C002C001C003C00474DAC0CE
:10096500E0741AC0E012111AE58124FCF581D0016A
:10097500D002D003D0048C0088077800EF29FFE867
:100985003AF88B057E00ED2FF52FEE38F530C004D3
:10099500C00374DDC0E0741AC0E012111A15811588
:1009A50081D003D004AD2CAA2DA92E7800B8100053
:1009B5004003020A3F8D828A8389F01212B0FFBF7D
:1009C5001000501E900030C005C004C003C002C016
:1009D50001C00012105BD000D001D002D003D004BA
:1009E500D0058D828A8389F01212B0FF7E00C00582
:1009F500C004C003C002C001C000C007C00674DA4D
:100A0500C0E0741AC0E012111AE58124FCF581D00A
:100A150000D001D002D003D004D0058D828A83890D
:100A2500F01212B0FFA3AD82AA837E00EF252FF549
:100A35002FEE3530F530080209B28D2C8A2D892E1E
:100A4500E52FF4FEE530F47F000EBE00010F8E02A7
:100A55007D00C3EA9410ED94005016900030C00755
:100A6500C006C004C00312105BD003D004D006D06A
:100A7500077F00C004C003C006C00774E0C0E0746F
:100A85001AC0E012111AE58124FCF581D003D004C7
:100A950074102BFBE43CFC0208A674E7C0E0741A52
:100AA500C0E07480C0E074E4C0E0741AC0E01211C4
:100AB5001AE58124FBF58190000D12105B90000D65
:100AC50002105B901B3675F08012127080FE43A7F2
:100AD500E043A70843A70475A61E75A6E1438F0149
:100AE5007580FF7590FF75A0FF75B0FF750EFA75DF
:100AF50082FF120F8412008C746CC0E0741BC0E07E
:100B05007480C0E07464C0E0741BC0E07480C0E011
:100B1500744BC0E0741BC0E012111AE58124F8F58E
:100B250081E58F30E009901B7475F080121270E535
:100B35008730E40E901B8875F0801212705387EF92
:100B45008009901B9375F080121270901B9E75F0B2
:100B55008012127074FAC0E0E4C0E014C0E0E4C092
:100B6500E074AFC0E0741BC0E012111AE58124FAED
:100B7500F58174F3C0E0741BC0E07480C0E074D9E3
:100B8500C0E0741BC0E012111AE58124FBF58175E4
:100B95000EED7582DE12107774EDC0E0E4C0E074EE
:100BA500DEC0E0E4C0E074FAC0E0741BC0E01211DE
:100BB5001AE58124FAF581901C2475F080121270D3
:100BC5009012D075F080021270AF82E4BF03010469
:100BD500FE60238F047D00C007C006C004C00574F5
:100BE5006BC0E0741CC0E012111AE58124FCF5818C
:100BF500D006D0078047BF02238F047D00C007C001
:100C050006C004C005748EC0E0741CC0E012111A41
:100C1500E58124FCF581D006D00780218F047D0075
:100C2500C007C006C004C00574B1C0E0741CC0E0B4
:100C350012111AE58124FCF581D006D007C007C042
:100C45000612102AE582D006D00760F1C007C0065B
:100C550012106FAC82D006D007EC24D0F5318F038B
:100C65007C00A9317A00C007C006C004C003C002D9
:100C7500C001C003C004C001C00274D4C0E0741C2C
:100C8500C0E012111AE58124FAF581D001D002D015
:100C950003D004D006D007E53124F75003020DF93F
:100CA500EE600FE5317003020DF07401B5310302FA
:100CB5000DF0E4BF020104FE6017E5317003020D7B
:100CC500E77401B53103020DE77402B53103020D76
:100CD500E7901CE875F080C007C006C004C003C0DB
:100CE50002C001121270D001D002D003D004D00688
:100CF500D007C007C006C004C003C002C00112105F
:100D05002AE582D001D002D003D004D006D00760F6
:100D1500E1C007C006C004C003C002C00112106FC5
:100D2500A882D001D002D003D004D006D007E82491
:100D3500D0FD6008BD01028003020DDEBD014D85B9
:100D450031F005F0ED800225E0D5F0FBF4FDC0079C
:100D5500C006C005C003C004C001C00274F5C0E0F0
:100D6500741CC0E012111AE58124FAF581D005D072
:100D750006D007EF7004ED528022BF0104ED5290BA
:100D850022EE6004ED52A022ED52B0228531F0052D
:100D9500F07401800225E0D5F0FBFDC007C006C058
:100DA50005C003C004C001C0027414C0E0741DC0B6
:100DB500E012111AE58124FAF581D005D006D00795
:100DC500EF7004ED428022BF0104ED429022EE60F7
:100DD50004ED42A022ED42B022901D3475F0800250
:100DE5001270901D8B75F080021270901D4475F085
:100DF50080021270901D7E75F080021270901E1D8B
:100E050075F080021270120AD3901F1F75F08012C0
:100E1500127012008512102AE58260F612106FAE6C
:100E250082BE300092004014EE2485400F8E057F6F
:100E3500008D828F83C00612105BD00690000DC016
:100E45000612105BD006BE30028067BE3103020E6B
:100E5500BFBE3203020EC7BE3303020ECFBE43022E
:100E6500802DBE45028032BE48028041BE630280AD
:100E750019BE6502801EBE66028023BE6802802DF3
:100E8500BE6D02801EBE724A801E1204A9806212C7
:100E95000890805D1200A1805812026E80531200E6
:100EA5008C804E12069D8049120AC88044120E029B
:100EB500803F758200120BCE8037758201120BCEF2
:100EC500802F758202120BCE8027758203120BCEFE
:100ED500801F20001CEE248540177F00C006C00738
:100EE500743BC0E0741FC0E012111AE58124FCF5C3
:100EF5008112102AE582600512106F80F4901F5050
:090F050075F080121270020E1743
:1012D00048656C6C6F20576F726C642E2E2E0D5407
:1012E0006869732069732061207465737420737456
:1012F00072696E672E0D00202020202020202020E3
:10130000202020202069577320202020202020200A
:1013100020202020202020202020202020202020CD
:101320002020202020202020202C575B0A20202055
:101330002020202020202020202020574040572EF1
:10134000202020202020202020202020202020209D
:101350002020202020202020202020202020674026
:10136000405B0A2020202020202020202020202038
:101370006940404040407320202020202020202031
:10138000202020202020202020202020202020205D
:1013900020206740404040570A2020202020202065
:1013A00020202020202040404040404040572E2018
:1013B000202020202020202020202020202020202D
:1013C0002020202020202C574040404040400A2030
:1013D00020202020202020202020205D4040404050
:1013E0004040404040572E2020202C5F5F5F5F5FD1
:1013F0005F5F2E202020202020202C6D4040404088
:1014000040404040690A2020202020202020202029
:10141000202C4040404040404040404040405740E9
:10142000404040404040404040404040406D6D5F43
:1014300067404040404040404040405B0A20202000
:101440002020202020202020644040404040404078
:10145000404040404040404040404040404040408C
:10146000404040404040404040404040404040407C
:101470004040400A202020202020202020206940B9
:10148000404040404040412A7E7E7E7E7E564D4018
:1014900040404040404040404041667E7E7E7E5617
:1014A0002A404040404040404040690A20202020DF
:1014B0002020202020204040404040417E2020200D
:1014C00020202020202020274D4040404040404107
:1014D000602020202020202020202756404040400F
:1014E0004040620A2020202020202020206440400C
:1014F000402A602020202020202020202020202082
:1015000020594040404066202020202020202020DC
:1015100020202020205640404040402E0A202020FD
:1015200020202020206940404160202020202020D1
:1015300020202020202020202020204D404050200E
:10154000202020202020202020202020202020209B
:1015500056404040620A202020202020202C40407D
:10156000412020202020202020202020202020205A
:101570002020202027404020202020202020202024
:1015800020202020202020202020214040402E0A02
:1015900020202020202020574050202020202020C4
:1015A000202020202020202020202020202020401B
:1015B0005B202020202020202020202020202020F0
:1015C0002020202020274040570A202020202020B3
:1015D0006440402020202020202020202020202C7B
:1015E0002020202020202020205D212020202020BD
:1015F00020202020202020202020202020202020EB
:101600005D4040620A20202020206740405B20206F
:1016100020202020202020202C57404073202020F4
:10162000202020205D202020202020202C574040FA
:1016300073202020202020202020202040404069AE
:101640000A20202020694040405B202020202020CC
:10165000202020205740404040692020202020208A
:101660005D2020202020202057404040406920203D
:10167000202020202020202040404040690A2020B7
:101680002069404040405B20202020202020202056
:101690002040404040405B2020202020205D202032
:1016A000202020202040404040405B20202020205F
:1016B00020202020204040404040690A20206740F0
:1016C000404040405B20202020202020202020403F
:1016D0004040404021202020202020405B2020202E
:1016E00020202040404040405B202020202020201F
:1016F000202020404040404040690A206440404053
:101700004040404020202020202020202020214038
:1017100040405020202020202069415720202020B8
:101720002020214040404120202020202020202037
:10173000205D40404040404040690A5740404040A2
:1017400040404040622020202020202020202027D0
:101750007E7E2020202020202C5A20596920202005
:10176000202020277E7E20202020202020202020B6
:101770002C4040404040404040400A272A404040E2
:101780004040404040732020202020202020202066
:1017900020202020202020205A602020592E202088
:1017A0002020202020202020202020202020202C2D
:1017B000574040404040404040410A2020274D4093
:1017C00040402A662A2A572E202020202020202030
:1017D0002020202020202C5A20202020205673203A
:1017E00020202020202020202020202020202C57B6
:1017F0002A7E7E7E4D404040660A20202020274DD4
:1018000040202020202756732E202020202020201A
:101810002020202C7A7E20202020202020274E5F90
:1018200020202020202020202020202C5A7E202014
:101830002020206440500A2020204D40404020209D
:1018400020202020207E2D5F5F20205F5F7A2F6088
:10185000202C676D5740406D6D5F20272B655F2EF4
:101860002020205F5F3D2F602020202020202C4062
:101870004040400A2020202027564D57202020207D
:1018800020202020202020202020202020206740F1
:1018900040404040404040405720202020207E7E55
:1018A0007E202020202020202020202C5741660A46
:1018B000202020202020207E4E2E2020202020208E
:1018C0002020202020202020202040404040404058
:1018D0004040404040212020202020202020202067
:1018E0002020202020202C5A600A20202020202088
:1018F000202020562E2020202020202020202020A4
:1019000020202020214D4040404040404040662063
:101910002020202020202020202020202020206780
:10192000662D0A20202020202020202020274E2E37
:1019300020202020202020202020202020202027A0
:101940007E2A2A2A667E2020202020202020202077
:101950002020202020202C5A600A20202020202017
:1019600020202020202056632E20202020202020F0
:101970002020202020202020202020202020202067
:1019800020202020202020202020205F5A660A20AE
:10199000202020202020202020202020207E655F65
:1019A0002020202020202020202020202020202037
:1019B000202020202020202020202020202C67599B
:1019C0007E0A2020202020202020202020202020CF
:1019D000202027563D5F202020202020202020206E
:1019E0002D4040442020202020202020202C6759FA
:1019F0007E20270A20202020202020202020202098
:101A000020202020202020207E3D5F5F2E202020CF
:101A100020202020202020202C5F5F7A3D7E600A3D
:101A200020202020202020202020202020202020B6
:101A3000202020202020202020277E7E7E2A3D3D41
:101A4000592A667E7E7E200044756D70696E67201F
:101A5000656570726F6D20636F6E74656E74206162
:101A60006E64206368616E67696E67206669727371
:101A700074206368617261637465723A003030305B
:101A8000257820200030302578202000302578204F
:101A90002000257820200025782000207C00256368
:101AA0000044756D70696E6720656570726F6D209A
:101AB000636F6E74656E7420696E20686578206649
:101AC0006F726D61743A003A3130003030302578F1
:101AD000003030257800302578002578003030003F
:101AE00025780D002573003A3030303030303031F9
:101AF00046460044756D70696E6720636F64653A91
:101B00000044756D70696E672072616D206D656D42
:101B10006F72793A0044756D70696E6720636F6407
:101B20006520696E206865782066696C6520666F3F
:101B3000726D61743A00526573657474696E6720E2
:101B4000746865206D6963726F2E0043707520257F
:101B5000732072756E6E696E672061742025734DF7
:101B6000487A0D00383953383235330031312E3050
:101B700035393200446F75626C6520737973746512
:101B80006D20636C6F636B00436F6C6420726573D0
:101B90006574005761726D20726573657400456EDF
:101BA00061626C6564207761746368646F67005379
:101BB0007461727465642074696D65722032207777
:101BC000697468207468203D20257820616E642047
:101BD000746C203D2025780D005374617274656427
:101BE0002073657269616C206174202573206270B6
:101BF000730D0031313532303000537461727465C9
:101C0000642074696D65722030207769746820746F
:101C100068203D20257820616E6420746C203D2072
:101C200025780D0048656C6C6F20576F726C642EC0
:101C30002E2E0D54686973206973206120746573BA
:101C40007420737472696E672E0A5072696E742004
:101C50006120737472696E672066726F6D20636FA6
:101C60006465206D656D6F72793A005768696368C5
:101C70002070696E2066726F6D203220746F20377D
:101C8000206F6620706F72742025753F0D005768B5
:101C90006963682070696E2066726F6D20332074EE
:101CA0006F2037206F6620706F72742025753F0D8E
:101CB0000057686963682070696E2066726F6D20D6
:101CC0003020746F2037206F6620706F727420256B
:101CD000753F0D0050696E202575206F6620706F6E
:101CE00072742025753A200030206F66662C2031F2
:101CF000206F6E2E0053657474696E672070696E74
:101D0000202575206F6620706F7274202575206FF6
:101D10006E2E0D0053657474696E672070696E20B5
:101D20002575206F6620706F7274202575206F6690
:101D3000662E0D00496E76616C696420616374697A
:101D40006F6E2100536F727279207468652070691C
:101D50006E73203020616E642031206F6620706FBA
:101D60007274203320617265207573656420627916
:101D70002073657269616C20706F72742E00496EF9
:101D800076616C69642070696E2100536F7272799C
:101D9000207468652070696E2030206F6E20706F2F
:101DA000727420322069732074686520626C696ED9
:101DB0006B696E67206C65642C0A746865207069B5
:101DC0006E203120697320746865207365726961C3
:101DD0006C20636861726163746572207472616EF5
:101DE000736D697420626C696E6B2C0A746865206F
:101DF00070696E2032206973207468652073657283
:101E000069616C20636861726163746572207265D8
:101E1000636569766520626C696E6B2E0041766140
:101E2000696C61626C6520636F6D616D6E647320B7
:101E30006172653A0A302C20312C2032206F7220DA
:101E40003320746F206368616E67652070696E204F
:101E5000706F727473207374617475732E0A6320CB
:101E600064756D7020636F6465206D656D6F727948
:101E70002E0A432064756D7020636F6465206D6564
:101E80006D6F727920696E2068657820666F726D5B
:101E900061742E0A652064756D7020656570726FBF
:101EA0006D206D656D6F72792E0A452064756D70B9
:101EB00020656570726F6D206D656D6F7279206938
:101EC0006E2068657820666F726D61742E0A6D20D1
:101ED00064756D702072616D206D656D6F72792E05
:101EE0000A66207072696E742066656C69780A7281
:101EF00020726573657420746865206D6963726F04
:101F0000636F6E74726F6C6C65722E0A482070720B
:101F1000696E7420746869732068656C702E00495E
:101F20006E7365727420636F6D6D616E642C2068D2
:101F300020666F722068656C702E00496E76616C49
:101F4000696420636F6D6D616E642025632E0D00E2
:101F5000496E7365727420636F6D6D616E642C20C1
:0C1F60006820666F722068656C703A00A3
:100F0E00C0E0C0F0C082C083850882850983E0F509
:100F1E000AD083D082D0F0D0E032AE82AF83439637
:100F2E00088E088F09120F0E850A825396F722C07B
:100F3E00E0C0F0C082C083850882850983E50AF08F
:100F4E00D083D082D0F0D0E032AF82439608439661
:100F5E0010850B08850C098F0A120F3D5396EF531F
:100F6E0096F7850B82850C83C007120F28AE82D0B0
:100F7E0007EEB507ED22AF8275330075340075327A
:100F8E0000753500C201D2B0D2B175985053C8F079
:100F9E0043C8308FCD850ECC8FCB850ECAD2CAD228
:100FAE00BCD2AFD2AC22C0E0C0D075D01010980227
:100FBE008015E533FF04F533EF2436F8A69974F067
:100FCE00253350037533001099028020E532B53574
:100FDE0004C2018017D201E532FF04F532EF244638
:100FEE00F9879974F02532500375320075A61E7577
:100FFE00A6E1D0D0D0E032AF82E5352446F8A60780
:10100E00AE350EBE100040027E00EEB5320280FA02
:10101E008E35200102D299B2A18F822275A61E753D
:10102E00A6E1E534B53303D38001C3B39202E433B2
:10103E00F58222E534FF04F534EF2436F987077480
:10104E00F025345003753400B2A28F8222AE82AFE7
:10105E0083C007C006121005D006D0078E828F837C
:10106E00221210417E008E8322AF825389F08F8C24
:10107E00850E8AD2A9D2AFD28C228556828557830D
:10108E0022C021C0E0C0F0C082C083C007C006C02D
:10109E0005C004C003C002C001C000C0D075D01886
:1010AE00AE56AF5774012EF556E43FF557C3E556CD
:1010BE009558E55795595006855658855759750ECA
:1010CE0097750F0185568285578375D000121223AE
:1010DE0075D018E5828583F045F07013C3E55895F9
:1010EE0056E55995575008855658855759B2A0D090
:1010FE00D0D000D001D002D003D004D005D006D07D
:0C110E0007D083D082D0F0D0E0D0213296
:06005800E478FFF6D8FD7C
:100036007900E94400601B7A00901F6C780175A076
:1000460000E493F2A308B8000205A0D9F4DAF27529
:02005600A0FF09
:10111A00C00D85810DE50D24FDF886831886821899
:10112A00E493A324DB600C2425600512120880F0E6
:10113A00021220D2D5E493A3C083C082B47314866A
:10114A00F0188683188682181212B06054A31212FD
:10115A000880F5B4630818E6181212088043B464CC
:10116A0017E630E74618E6F42401F608E6F43400F8
:10117A00F6742D1212088033B4782D86831886826D
:10118A0018E41211F9E5831211F8E5831211F9E551
:10119A00821211F8E5821211F930D5057430121253
:1011AA0008D082D08302112AB475F6E6FA18E6F955
:1011BA00187C107D271211E3FF7CE87D031211E3EE
:1011CA00C4F5837C647D001211E34283E975F00A59
:1011DA0084C445F0F582EF80A97B000BC3E99CF932
:1011EA00EA9DFA50F61BE92CF9EA3DFAEB22C454BF
:1011FA000F700320D51FC2D52490D43440D4C083A5
:10120A00C082C0F0F582E8C0E012105BD0E0F8D0EE
:10121A00F0D082D08322D00D22E50E450F60467AA7
:10122A0001E50E25E0F50EE50F334012F50FE582D4
:10123A00950EE583950F40030A80E6C3E50F13F583
:10124A000FE50E13F50EC3E582950EF5F0E58395CD
:10125A000F4005F58385F082C3E50F13F50FE50E00
:06126A0013F50EDAE1228B
:10005E007800E84400600A790175A000E4F309D83D
:10006E00FC7800E84400600C7900900001E4F0A3F5
:04007E00D8FCD9FAD7
:10127000AD82AE83AFF08D828E838FF01212B0FC00
:1012800060280DBD00010E7B008C828B83C007C0DF
:1012900006C00512105BAB82AC83D005D006D00728
:1012A000BBFFD3BCFFD090FFFF2290000A02105B6F
:0D0029007581591212CCE582600302002699
:1012B00020F71430F6148883A88220F507E6A88367
:1012C00075830022E280F7E49322E02275820022F7
:00000001FF
