:04000000020029329F
:03000B00021028B8
:0100130032BA
:01001B0032B2
:03002300020F4D7C
:0300820002002653
:03002600020DBF09
:2000850090000D120FF490129075F08012120990000D020FF49019E175F080121209900097
:2000A50000120ECCE58204FFBF5B027F41E4F50BF50C8F82120EFB7E007F008E048F05C312
:2000C50074FF9C74079D500302025BC3EC9410ED9400501FC007C006C006C0077416C0E0BB
:2000E500741AC0E01210B3E58124FCF581D006D007806574FF2D401FC007C006C006C00751
:20010500741EC0E0741AC0E01210B3E58124FCF581D006D007804174F02D401FC007C006BE
:20012500C006C0077425C0E0741AC0E01210B3E58124FCF581D006D007801DC007C006C05E
:2001450006C007742BC0E0741AC0E01210B3E58124FCF581D006D0077D00BD100050648D57
:20016500037C008E018F02EB29FBEC3AFC8B828C83C007C006C005120ECCAC82D005D00677
:20018500D007BC10005016900030C007C006C005C004120FF4D004D005D006D0077B00C0D5
:2001A50007C006C005C004C0037430C0E0741AC0E01210B3E58124FCF581D005D006D0075C
:2001C5000D8097C007C0067434C0E0741AC0E01210B315811581D006D0077D00BD100050AB
:2001E5004F8D037C00EB2EF582EC3FF583C007C006C005120ECCAC82D005D006D007BC20A2
:20020500004005EC248150027C2E7B00C007C006C005C004C0037437C0E0741AC0E0121018
:20022500B3E58124FCF581D005D006D0070D80AC90007CC007C006120FF490000D120FF4EF
:20024500D006D0078E048F0574102CFCE43DFD8C068D070200C090000D120FF490000D02C3
:200265000FF4901A3A75F0801212097E007F008E048F05C374FF9C74079D5003020479C0E1
:2002850007C006C005C0047460C0E0741AC0E01210B315811581D004D005D006D0077A1080
:2002A5007B00C3EC9410ED94005028C007C006C003C002C006C0077464C0E0741AC0E0121B
:2002C50010B3E58124FCF581D002D003D006D00702035574FF2D4027C007C006C003C00295
:2002E500C006C007746AC0E0741AC0E01210B3E58124FCF581D002D003D006D00780517458
:20030500F02D4027C007C006C003C002C006C007746FC0E0741AC0E01210B3E58124FCF5B4
:2003250081D002D003D006D0078025C007C006C003C002C006C0077473C0E0741AC0E012DA
:2003450010B3E58124FCF581D002D003D006D0078F057C00ED2AFDEC3BFC8E027B00EA2D1E
:20036500FDEB3CFCC007C006C005C0047476C0E0741AC0E01210B315811581D004D005D010
:2003850006D0077B00BB100040030204198B017A00E92EF582EA3FF583C007C006C005C08C
:2003A50004C003120ECCAA82D003D004D005D006D007BA1000501E900030C007C006C005E6
:2003C500C004C003C002120FF4D002D003D004D005D006D0078A017A00C007C006C005C0A8
:2003E50004C003C002C001C001C0027473C0E0741AC0E01210B3E58124FCF581D001D00202
:20040500D003D004D005D006D007E92DFDEA3CFC0B02038AEDF4FDECF47C000DBD00010CCE
:200425008D027B00C3EA9410EB94005016900030C007C006C005C004120FF4D004D005D013
:2004450006D0077C00C007C006C005C0047479C0E0741AC0E01210B3E58124FCF581D006C6
:20046500D0078E048F0574102CFCE43DFD8C068D070202747480C0E0741AC0E07480C0E0BC
:20048500747DC0E0741AC0E01210B3E58124FBF58190000D120FF490000D020FF47D007E79
:2004A500007F80901A8C75F080C007C006C005121209D005D006D007E4F522F523C374FFD3
:2004C5009522741F95235003020690C3E5229410E52394005023C007C006C005C022C02396
:2004E5007416C0E0741AC0E01210B3E58124FCF581D005D006D007807374FF25234023C07B
:2005050007C006C005C022C023741EC0E0741AC0E01210B3E58124FCF581D005D006D007CC
:20052500804A74F025234023C007C006C005C022C0237425C0E0741AC0E01210B3E5812400
:20054500FCF581D005D006D0078021C007C006C005C022C023742BC0E0741AC0E01210B3A8
:20056500E58124FCF581D005D006D0078D008E018F02E4F524F525C3E5249410E525940026
:20058500505D888289838AF0121249FCBC10005012900030C002C001C000120FF4D000D0CA
:2005A50001D002888289838AF0121249FCA3A882A9837B00C002C001C000C004C003743088
:2005C500C0E0741AC0E01210B3E58124FCF581D000D001D0020524E4B5249C05258098C080
:2005E50002C001C0007434C0E0741AC0E01210B315811581D000D001D002E824F0FCE93474
:20060500FFFB75260074F0252640548C828B838AF0121249F8B820004005E8248150149064
:20062500002EC004C003C002120FF4D002D003D00480237900C004C003C002C000C0017456
:2006450037C0E0741AC0E01210B3E58124FCF581D002D003D0040CBC00010B052680A68C95
:20066500058B068A0790007CC007C006C005120FF490000D120FF4D005D006D007741025FE
:2006850022F522E43523F5230204C290000D020FF47D007E007F40901A9A75F080C007C0F4
:2006A50006C005121209D005D006D007E4F527F528C374FF9527E495285003020883C3E583
:2006C500279410E52894005023C007C006C005C027C0287416C0E0741AC0E01210B3E58182
:2006E50024FCF581D005D006D007807374FF25284023C007C006C005C027C028741EC0E074
:20070500741AC0E01210B3E58124FCF581D005D006D007804A74F025284023C007C006C028
:2007250005C027C0287425C0E0741AC0E01210B3E58124FCF581D005D006D0078021C007BE
:20074500C006C005C027C028742BC0E0741AC0E01210B3E58124FCF581D005D006D0078DED
:20076500008E018F02E4F529F52AC3E5299410E52A9400505D888289838AF0121249FCBCB9
:2007850010005012900030C002C001C000120FF4D000D001D002888289838AF0121249FC5E
:2007A500A3A882A9837B00C002C001C000C004C0037430C0E0741AC0E01210B3E58124FC29
:2007C500F581D000D001D0020529E4B5299C052A8098C002C001C0007434C0E0741AC0E09F
:2007E5001210B315811581D000D001D002E824F0FCE934FFFB752B0074F0252B40548C827B
:200805008B838AF0121249F8B820004005E82481501490002EC004C003C002120FF4D002EA
:20082500D003D00480237900C004C003C002C000C0017437C0E0741AC0E01210B3E581244E
:20084500FCF581D002D003D0040CBC00010B052B80A68C058B068A0790007CC007C006C072
:2008650005120FF490000D120FF4D005D006D00774102527F527E43528F5280206B690008D
:200885000D020FF4752C00752D00752E80901AAE75F0801212097B007C00C374FF9B741F16
:2008A5009C5003020A98C004C0037460C0E0741AC0E01210B315811581D003D00479107ACC
:2008C50000C3EB9410EC94005028C004C003C002C001C003C0047464C0E0741AC0E0121070
:2008E500B3E58124FCF581D001D002D003D00402097474FF2C4027C004C003C002C001C0AB
:2009050003C004746AC0E0741AC0E01210B3E58124FCF581D001D002D003D004805174F00F
:200925002C4027C004C003C002C001C003C004746FC0E0741AC0E01210B3E58124FCF5810C
:20094500D001D002D003D0048025C004C003C002C001C003C0047473C0E0741AC0E012103B
:20096500B3E58124FCF581D001D002D003D0048C0088077800EF29FFE83AF88B057E00EDBA
:200985002FF52FEE38F530C004C0037476C0E0741AC0E01210B315811581D003D004AD2CF4
:2009A500AA2DA92E7800B810004003020A388D828A8389F0121249FFBF1000501E900030BF
:2009C500C005C004C003C002C001C000120FF4D000D001D002D003D004D0058D828A8389DA
:2009E500F0121249FF7E00C005C004C003C002C001C000C007C0067473C0E0741AC0E01235
:200A050010B3E58124FCF581D000D001D002D003D004D0058D828A8389F0121249FFA3ADD2
:200A250082AA837E00EF252FF52FEE3530F530080209AB8D2C8A2D892EE52FF4FEE530F4B1
:200A45007F000EBE00010F8E027D00C3EA9410ED94005016900030C007C006C004C003120B
:200A65000FF4D003D004D006D0077F00C004C003C006C0077479C0E0741AC0E01210B3E512
:200A85008124FCF581D003D00474102BFBE43CFC02089F7480C0E0741AC0E07480C0E0745A
:200AA5007DC0E0741AC0E01210B3E58124FBF58190000D120FF490000D020FF4901ACF75D4
:200AC500F08012120980FE7580FF7590FF75A0FF75B0FF750EFD7582FF120F1D1200857407
:200AE50005C0E0741BC0E07480C0E074FDC0E0741AC0E07480C0E074E4C0E0741AC0E0127E
:200B050010B3E58124F8F58174FDC0E0E4C0E014C0E0E4C0E0740DC0E0741BC0E01210B323
:200B2500E58124FAF5817451C0E0741BC0E07480C0E07437C0E0741BC0E01210B3E58124B5
:200B4500FBF581750EED7582DE12101074EDC0E0E4C0E074DEC0E0E4C0E07458C0E0741BB2
:200B6500C0E01210B3E58124FAF581901B8275F08012120990126975F080021209AF82E4A0
:200B8500BF030104FE60238F047D00C007C006C004C00574C9C0E0741BC0E01210B3E5819B
:200BA50024FCF581D006D0078047BF02238F047D00C007C006C004C00574ECC0E0741BC0CD
:200BC500E01210B3E58124FCF581D006D00780218F047D00C007C006C004C005740FC0E0C8
:200BE500741CC0E01210B3E58124FCF581D006D007C007C006120FC3E582D006D00760F16C
:200C0500C007C006121008AC82D006D007EC24D0F5318F037C00A9317A00C007C006C00484
:200C2500C003C002C001C003C004C001C0027432C0E0741CC0E01210B3E58124FAF581D04A
:200C450001D002D003D004D006D007E53124F75003020DADEE600FE5317003020DA474011A
:200C6500B53103020DA4E4BF020104FE6017E5317003020D9B7401B53103020D9B7402B54E
:200C85003103020D9B901C4675F080C007C006C004C003C002C001121209D001D002D00360
:200CA500D004D006D007C007C006C004C003C002C001120FC3E582D001D002D003D004D0B2
:200CC50006D00760E1C007C006C004C003C002C001121008A882D001D002D003D004D006E6
:200CE500D007E824D0FD6008BD01028003020D92BD014D8531F005F0ED800225E0D5F0FB19
:200D0500F4FDC007C006C005C003C004C001C0027453C0E0741CC0E01210B3E58124FAF59C
:200D250081D005D006D007EF7004ED528022BF0104ED529022EE6004ED52A022ED52B0224E
:200D45008531F005F07401800225E0D5F0FBFDC007C006C005C003C004C001C0027472C038
:200D6500E0741CC0E01210B3E58124FAF581D005D006D007EF7004ED428022BF0104ED42E6
:200D85009022EE6004ED42A022ED42B022901C9275F080021209901CE975F08002120990F1
:200DA5001CA275F080021209901CDC75F080021209901D7B75F080021209120ACC901E60C4
:200DC50075F080121209120FC3E58260F9121008AE82BE300092004014EE2485400F8E05B1
:200DE5007F008D828F83C006120FF4D00690000DC006120FF4D006BE3002805ABE31028014
:200E05005DBE32028060BE33028063BE43028028BE4502802DBE48028037BE63028014BE37
:200E250065028019BE6602801EBE68028023BE6D4580191204A2805D120889805812009A59
:200E45008053120267804E12008580491206968044120DB6803F758200120B8280377582C7
:200E650001120B82802F758202120B828027758203120B82801F20001CEE248540177F00FE
:200E8500C006C007747CC0E0741EC0E01210B3E58124FCF581120FC3E582600512100880D3
:0D0EA500F4901E9175F080121209020DCB21
:2012690048656C6C6F20576F726C642E2E2E0D5468697320697320612074657374207374B6
:2012890072696E672E0D002020202020202020202020202020695773202020202020202067
:2012A900202020202020202020202020202020202020202020202020202C575B0A202020BD
:2012C9002020202020202020202020574040572E2020202020202020202020202020202049
:2012E90020202020202020202020202020206740405B0A2020202020202020202020202039
:20130900694040404040732020202020202020202020202020202020202020202020202088
:2013290020206740404040570A2020202020202020202020202040404040404040572E2097
:20134900202020202020202020202020202020202020202020202C574040404040400A2097
:2013690020202020202020202020205D404040404040404040572E2020202C5F5F5F5F5F7B
:201389005F5F2E202020202020202C6D4040404040404040690A202020202020202020202C
:2013A900202C4040404040404040404040405740404040404040404040404040406D6D5FC8
:2013C90067404040404040404040405B0A2020202020202020202020644040404040404034
:2013E9004040404040404040404040404040404040404040404040404040404040404040E4
:201409004040400A202020202020202020206940404040404040412A7E7E7E7E7E564D40CC
:2014290040404040404040404041667E7E7E7E562A404040404040404040690A2020202011
:201449002020202020204040404040417E20202020202020202020274D404040404040414F
:20146900602020202020202020202756404040404040620A20202020202020202064404076
:20148900402A602020202020202020202020202020594040404066202020202020202020DA
:2014A90020202020205640404040402E0A202020202020202069404041602020202020206B
:2014C90020202020202020202020204D404050202020202020202020202020202020202066
:2014E90056404040620A202020202020202C404041202020202020202020202020202020B4
:201509002020202027404020202020202020202020202020202020202020214040402E0A22
:201529002020202020202057405020202020202020202020202020202020202020202040FB
:201549005B2020202020202020202020202020202020202020274040570A202020202020DF
:201569006440402020202020202020202020202C2020202020202020205D21202020202094
:20158900202020202020202020202020202020205D4040620A20202020206740405B2020D7
:2015A90020202020202020202C57404073202020202020205D202020202020202C5740408C
:2015C900732020202020202020202020404040690A20202020694040405B20202020202038
:2015E900202020205740404040692020202020205D202020202020205740404040692020A5
:20160900202020202020202040404040690A20202069404040405B2020202020202020200A
:201629002040404040405B2020202020205D2020202020202040404040405B2020202020AE
:2016490020202020204040404040690A20206740404040405B20202020202020202020406C
:201669004040404021202020202020405B20202020202040404040405B20202020202020AA
:20168900202020404040404040690A20644040404040404020202020202020202020214009
:2016A90040405020202020202069415720202020202021404040412020202020202020208E
:2016C900205D40404040404040690A57404040404040404062202020202020202020202731
:2016E9007E7E2020202020202C5A205969202020202020277E7E202020202020202020209A
:201709002C4040404040404040400A272A4040404040404040732020202020202020202046
:2017290020202020202020205A602020592E20202020202020202020202020202020202CD3
:20174900574040404040404040410A2020274D4040402A662A2A572E202020202020202001
:201769002020202020202C5A202020202056732020202020202020202020202020202C574E
:201789002A7E7E7E4D404040660A20202020274D40202020202756732E202020202020206D
:2017A9002020202C7A7E20202020202020274E5F20202020202020202020202C5A7E202044
:2017C9002020206440500A2020204D404040202020202020207E2D5F5F20205F5F7A2F60E5
:2017E900202C676D5740406D6D5F20272B655F2E2020205F5F3D2F602020202020202C4036
:201809004040400A2020202027564D5720202020202020202020202020202020202067406D
:2018290040404040404040405720202020207E7E7E202020202020202020202C5741660ABA
:20184900202020202020207E4E2E2020202020202020202020202020202040404040404025
:20186900404040404021202020202020202020202020202020202C5A600A2020202020204E
:20188900202020562E202020202020202020202020202020214D4040404040404040662087
:2018A90020202020202020202020202020202067662D0A20202020202020202020274E2E58
:2018C900202020202020202020202020202020277E2A2A2A667E20202020202020202020D8
:2018E9002020202020202C5A600A20202020202020202020202056632E20202020202020E8
:201909002020202020202020202020202020202020202020202020202020205F5A660A2015
:20192900202020202020202020202020207E655F20202020202020202020202020202020BC
:20194900202020202020202020202020202C67597E0A2020202020202020202020202020AA
:20196900202027563D5F202020202020202020202D4040442020202020202020202C6759C8
:201989007E20270A20202020202020202020202020202020202020207E3D5F5F2E202020E8
:2019A90020202020202020202C5F5F7A3D7E600A2020202020202020202020202020202095
:2019C900202020202020202020277E7E7E2A3D3D592A667E7E7E200044756D70696E672022
:2019E900656570726F6D20636F6E74656E7420616E64206368616E67696E672066697273B5
:201A090074206368617261637465723A0030303025782020003030257820200030257820AB
:201A29002000257820200025782000207C0025630044756D70696E6720656570726F6D2023
:201A4900636F6E74656E7420696E2068657820666F726D61743A003A31300030303025787B
:201A69000030302578003025780025780030300025780D002573003A303030303030303199
:201A890046460044756D70696E6720636F64653A0044756D70696E672072616D206D656D55
:201AA9006F72793A0044756D70696E6720636F646520696E206865782066696C6520666FE9
:201AC900726D61743A00526573657474696E6720746865206D6963726F2E00437075202524
:201AE900732072756E6E696E672061742025734D487A0D00383953383235320031312E302B
:201B090035393200537461727465642074696D657220322077697468207468203D202578C0
:201B290020616E6420746C203D2025780D00537461727465642073657269616C2061742096
:201B49002573206270730D0031313532303000537461727465642074696D6572203020774A
:201B6900697468207468203D20257820616E6420746C203D2025780D0048656C6C6F20571C
:201B89006F726C642E2E2E0D546869732069732061207465737420737472696E672E0A50C0
:201BA90072696E74206120737472696E672066726F6D20636F6465206D656D6F72793A00A5
:201BC90057686963682070696E2066726F6D203220746F2037206F6620706F72742025758E
:201BE9003F0D0057686963682070696E2066726F6D203320746F2037206F6620706F7274DB
:201C09002025753F0D0057686963682070696E2066726F6D203020746F2037206F66207058
:201C29006F72742025753F0D0050696E202575206F6620706F72742025753A200030206FB2
:201C490066662C2031206F6E2E0053657474696E672070696E202575206F6620706F72742E
:201C6900202575206F6E2E0D0053657474696E672070696E202575206F6620706F72742070
:201C89002575206F66662E0D00496E76616C696420616374696F6E2100536F7272792074D2
:201CA90068652070696E73203020616E642031206F6620706F7274203320617265207573F3
:201CC90065642062792073657269616C20706F72742E00496E76616C69642070696E210035
:201CE900536F727279207468652070696E2030206F6E20706F727420322069732074686513
:201D090020626C696E6B696E67206C65642C0A7468652070696E203120697320746865204B
:201D290073657269616C20636861726163746572207472616E736D697420626C696E6B2C5F
:201D49000A7468652070696E2032206973207468652073657269616C206368617261637483
:201D69006572207265636569766520626C696E6B2E00417661696C61626C6520636F6D61E1
:201D89006D6E6473206172653A0A302C20312C2032206F72203320746F206368616E6765E4
:201DA9002070696E20706F727473207374617475732E0A632064756D7020636F6465206DDE
:201DC900656D6F72792E0A432064756D7020636F6465206D656D6F727920696E20686578AD
:201DE90020666F726D61742E0A652064756D7020656570726F6D206D656D6F72792E0A45E0
:201E09002064756D7020656570726F6D206D656D6F727920696E2068657820666F726D61F1
:201E2900742E0A6D2064756D702072616D206D656D6F72792E0A66207072696E74206665BB
:201E49006C69780A48207072696E7420746869732068656C702E00496E7365727420636F57
:201E69006D6D616E642C206820666F722068656C702E00496E76616C696420636F6D6D6146
:201E89006E642025632E0D00496E7365727420636F6D6D616E642C206820666F7220686508
:041EA9006C703A001F
:200EB200C0E0C0F0C082C083850882850983E0F50AD083D082D0F0D0E032AE82AF834396CA
:200ED200088E088F09120EB2850A825396F722C0E0C0F0C082C083850882850983E50AF011
:200EF200D083D082D0F0D0E032AF82439608439610850B08850C098F0A120EE15396EF53A7
:0B0F120096F7850B82850C83020ECC45
:200F1D00AF82753300753400753200753500C201D2B0D2B175985053C8F043C8308FCD8595
:200F3D000ECC8FCB850ECAD2CAD2BCD2AFD2AC22C0E0C0D075D0101098028015E533FF04D9
:200F5D00F533EF2436F8A69974F0253350037533001099028020E532B53504C2018017D299
:200F7D0001E532FF04F532EF2446F9879974F02532500375320075A61E75A6E1D0D0D0E066
:200F9D0032AF82E5352446F8A607AE350EBE100040027E00EEB5320280FA8E35200102D220
:200FBD0099B2A18F822275A61E75A6E1E534B53303D38001C3B39202E433F58222E534FF96
:200FDD0004F534EF2436F9870774F025345003753400B2A28F8222AE82AF83C007C00612B6
:130FFD000F9ED006D0078E828F8322120FDA7E008E832297
:20101000AF825389F08F8C850E8AD2A9D2AFD28C2285568285578322C021C0E0C0F0C082BE
:20103000C083C007C006C005C004C003C002C001C000C0D075D018AE56AF5774012EF5565C
:20105000E43FF557C3E5569558E55795595006855658855759750E97750F01855682855766
:201070008375D0001211BC75D018E5828583F045F07013C3E5589556E559955750088556FD
:2010900058855759B2A0D0D0D000D001D002D003D004D005D006D007D083D082D0F0D0E010
:0310B000D021321A
:06005800E478FFF6D8FD7C
:200036007900E94400601B7A00901EAD780175A000E493F2A308B8000205A0D9F4DAF275A5
:02005600A0FF09
:2010B300C00D85810DE50D24FDF8868318868218E493A324DB600C242560051211A180F08A
:2010D3000211B9D2D5E493A3C083C082B4731486F0188683188682181212496054A31211FA
:2010F300A180F5B4630818E6181211A18043B46417E630E74618E6F42401F608E6F4340076
:20111300F6742D1211A18033B4782D868318868218E4121192E583121191E583121192E55D
:2011330082121191E58212119230D50574301211A1D082D0830210C3B475F6E6FA18E6F968
:20115300187C107D2712117CFF7CE87D0312117CC4F5837C647D0012117C4283E975F00ABE
:2011730084C445F0F582EF80A97B000BC3E99CF9EA9DFA50F61BE92CF9EA3DFAEB22C45453
:201193000F700320D51FC2D52490D43440D4C083C082C0F0F582E8C0E0120FF4D0E0F8D07E
:0911B300F0D082D08322D00D227D
:2011BC00E50E450F60467A01E50E25E0F50EE50F334012F50FE582950EE583950F40030AD0
:2011DC0080E6C3E50F13F50FE50E13F50EC3E582950EF5F0E583950F4005F58385F082C381
:0D11FC00E50F13F50FE50E13F50EDAE122F5
:20005E007800E84400600A790175A000E4F309D8FC7800E84400600C7900900001E4F0A3A0
:04007E00D8FCD9FAD7
:20120900AD82AE83AFF08D828E838FF0121249FC60280DBD00010E7B008C828B83C007C03F
:2012290006C005120FF4AB82AC83D005D006D007BBFFD3BCFFD090FFFF2290000A020FF480
:0D002900758159121265E582600302002600
:1C12490020F71430F6148883A88220F507E6A88375830022E280F7E49322E022B4
:04126500758200226C
:00000001FF
