:04000000020029329F
:03000B000210845C
:0100130032BA
:01001B0032B2
:03002300020FA920
:0300820002002653
:03002600020E0BBC
:2000850075A61E75A6E12290000D1210509012EC75F08012126590000D021050901A3D759E
:2000A500F080121265900000120F28E58204FFBF5B027F41E4F50BF50C8F82120F577E0037
:2000C5007F008E048F05C374FF9C74079D5003020262C3EC9410ED9400501FC007C006C043
:2000E50006C0077472C0E0741AC0E012110FE58124FCF581D006D007806574FF2D401FC0FB
:2001050007C006C006C007747AC0E0741AC0E012110FE58124FCF581D006D007804174F0C4
:200125002D401FC007C006C006C0077481C0E0741AC0E012110FE58124FCF581D006D00776
:20014500801DC007C006C006C0077487C0E0741AC0E012110FE58124FCF581D006D0077DC2
:2001650000BD100050648D037C008E018F02EB29FBEC3AFC8B828C83C007C006C005120F0D
:2001850028AC82D005D006D007BC10005016900030C007C006C005C004121050D004D0055F
:2001A500D006D0077B00C007C006C005C004C003748CC0E0741AC0E012110FE58124FCF5BE
:2001C50081D005D006D0070D8097C007C0067490C0E0741AC0E012110F15811581D006D090
:2001E500077D00BD1000504F8D037C00EB2EF582EC3FF583C007C006C005120F28AC82D032
:2002050005D006D007BC20004005EC248150027C2E7B00C007C006C005C004C0037493C05E
:20022500E0741AC0E012110FE58124FCF581D005D006D0070D80AC90007CC007C006121007
:200245005090000D121050D006D0078E048F0574102CFCE43DFD8C068D070200C790000D11
:2002650012105090000D021050901A9675F0801212657E007F008E048F05C374FF9C7407EA
:200285009D5003020480C007C006C005C00474BCC0E0741AC0E012110F15811581D004D0CD
:2002A50005D006D0077A107B00C3EC9410ED94005028C007C006C003C002C006C00774C063
:2002C500C0E0741AC0E012110FE58124FCF581D002D003D006D00702035C74FF2D4027C0A3
:2002E50007C006C003C002C006C00774C6C0E0741AC0E012110FE58124FCF581D002D0033F
:20030500D006D007805174F02D4027C007C006C003C002C006C00774CBC0E0741AC0E012A4
:20032500110FE58124FCF581D002D003D006D0078025C007C006C003C002C006C00774CFC3
:20034500C0E0741AC0E012110FE58124FCF581D002D003D006D0078F057C00ED2AFDEC3BFF
:20036500FC8E027B00EA2DFDEB3CFCC007C006C005C00474D2C0E0741AC0E012110F158148
:200385001581D004D005D006D0077B00BB100040030204208B017A00E92EF582EA3FF58388
:2003A500C007C006C005C004C003120F28AA82D003D004D005D006D007BA1000501E9000F9
:2003C50030C007C006C005C004C003C002121050D002D003D004D005D006D0078A017A00DB
:2003E500C007C006C005C004C003C002C001C001C00274CFC0E0741AC0E012110FE581244C
:20040500FCF581D001D002D003D004D005D006D007E92DFDEA3CFC0B020391EDF4FDECF405
:200425007C000DBD00010C8D027B00C3EA9410EB94005016900030C007C006C005C004123C
:200445001050D004D005D006D0077C00C007C006C005C00474D5C0E0741AC0E012110FE521
:200465008124FCF581D006D0078E048F0574102CFCE43DFD8C068D0702027B74DCC0E074BA
:200485001AC0E07480C0E074D9C0E0741AC0E012110FE58124FBF58190000D121050900022
:2004A5000D0210507D007E007F80901AE875F080C007C006C005121265D005D006D007E416
:2004C500F522F523C374FF9522742F95235003020697C3E5229410E52394005023C007C0AA
:2004E50006C005C022C0237472C0E0741AC0E012110FE58124FCF581D005D006D007807310
:2005050074FF25234023C007C006C005C022C023747AC0E0741AC0E012110FE58124FCF538
:2005250081D005D006D007804A74F025234023C007C006C005C022C0237481C0E0741AC0E0
:20054500E012110FE58124FCF581D005D006D0078021C007C006C005C022C0237487C0E0B3
:20056500741AC0E012110FE58124FCF581D005D006D0078D008E018F02E4F524F525C3E52C
:20058500249410E5259400505D888289838AF01212A5FCBC10005012900030C002C001C0BD
:2005A50000121050D000D001D002888289838AF01212A5FCA3A882A9837B00C002C001C045
:2005C50000C004C003748CC0E0741AC0E012110FE58124FCF581D000D001D0020524E4B55E
:2005E500249C05258098C002C001C0007490C0E0741AC0E012110F15811581D000D001D010
:2006050002E824F0FCE934FFFB75260074F0252640548C828B838AF01212A5F8B820004077
:2006250005E82481501490002EC004C003C002121050D002D003D00480237900C004C0032A
:20064500C002C000C0017493C0E0741AC0E012110FE58124FCF581D002D003D0040CBC000E
:20066500010B052680A68C058B068A0790007CC007C006C00512105090000D121050D005B1
:20068500D006D00774102522F522E43523F5230204C990000D0210507D007E007F40901A40
:2006A500F675F080C007C006C005121265D005D006D007E4F527F528C374FF9527E495284D
:2006C500500302088AC3E5279410E52894005023C007C006C005C027C0287472C0E0741A72
:2006E500C0E012110FE58124FCF581D005D006D007807374FF25284023C007C006C005C07D
:2007050027C028747AC0E0741AC0E012110FE58124FCF581D005D006D007804A74F02528DE
:200725004023C007C006C005C027C0287481C0E0741AC0E012110FE58124FCF581D005D09A
:2007450006D0078021C007C006C005C027C0287487C0E0741AC0E012110FE58124FCF581FE
:20076500D005D006D0078D008E018F02E4F529F52AC3E5299410E52A9400505D8882898349
:200785008AF01212A5FCBC10005012900030C002C001C000121050D000D001D0028882896C
:2007A500838AF01212A5FCA3A882A9837B00C002C001C000C004C003748CC0E0741AC0E066
:2007C50012110FE58124FCF581D000D001D0020529E4B5299C052A8098C002C001C00074E9
:2007E50090C0E0741AC0E012110F15811581D000D001D002E824F0FCE934FFFB752B0074A2
:20080500F0252B40548C828B838AF01212A5F8B820004005E82481501490002EC004C00355
:20082500C002121050D002D003D00480237900C004C003C002C000C0017493C0E0741AC02B
:20084500E012110FE58124FCF581D002D003D0040CBC00010B052B80A68C058B068A07909F
:20086500007CC007C006C00512105090000D121050D005D006D00774102527F527E4352875
:20088500F5280206BD90000D021050752C00752D00752E80901B0A75F0801212657B007CF2
:2008A50000C374FF9B742F9C5003020A9FC004C00374BCC0E0741AC0E012110F1581158142
:2008C500D003D00479107A00C3EB9410EC94005028C004C003C002C001C003C00474C0C09A
:2008E500E0741AC0E012110FE58124FCF581D001D002D003D00402097B74FF2C4027C0041D
:20090500C003C002C001C003C00474C6C0E0741AC0E012110FE58124FCF581D001D002D05C
:2009250003D004805174F02C4027C004C003C002C001C003C00474CBC0E0741AC0E0121152
:200945000FE58124FCF581D001D002D003D0048025C004C003C002C001C003C00474CFC004
:20096500E0741AC0E012110FE58124FCF581D001D002D003D0048C0088077800EF29FFE85A
:200985003AF88B057E00ED2FF52FEE38F530C004C00374D2C0E0741AC0E012110F1581150F
:2009A50081D003D004AD2CAA2DA92E7800B810004003020A3F8D828A8389F01212A5FFBF99
:2009C5001000501E900030C005C004C003C002C001C000121050D000D001D002D003D004B9
:2009E500D0058D828A8389F01212A5FF7E00C005C004C003C002C001C000C007C00674CFE3
:200A0500C0E0741AC0E012110FE58124FCF581D000D001D002D003D004D0058D828A838941
:200A2500F01212A5FFA3AD82AA837E00EF252FF52FEE3530F530080209B28D2C8A2D892EB1
:200A4500E52FF4FEE530F47F000EBE00010F8E027D00C3EA9410ED94005016900030C0075B
:200A6500C006C004C003121050D003D004D006D0077F00C004C003C006C00774D5C0E0746E
:200A85001AC0E012110FE58124FCF581D003D00474102BFBE43CFC0208A674DCC0E0741ACE
:200AA500C0E07480C0E074D9C0E0741AC0E012110FE58124FBF58190000D12105090000D09
:200AC500021050901B2B75F08012126580FE43A7E043A70843A70475A61E75A6E1438F013B
:200AE5007580FF7590FF75A0FF75B0FF750EFA7582FF120F7912008C7461C0E0741BC0E072
:200B05007480C0E07459C0E0741BC0E07480C0E07440C0E0741BC0E012110FE58124F8F5E0
:200B250081E58F30E009901B6975F080121265E58730E40E901B7D75F0801212655387EF33
:200B45008009901B8875F080121265901B9375F08012126574FAC0E0E4C0E014C0E0E4C0D0
:200B6500E074A4C0E0741BC0E012110FE58124FAF58174E8C0E0741BC0E07480C0E074CE7C
:200B8500C0E0741BC0E012110FE58124FBF581750EED7582DE12106C74EDC0E0E4C0E07488
:200BA500DEC0E0E4C0E074EFC0E0741BC0E012110FE58124FAF581901C1975F0801212659D
:200BC5009012C575F080021265AF82E4BF030104FE60238F047D00C007C006C004C0057454
:200BE50060C0E0741CC0E012110FE58124FCF581D006D0078047BF02238F047D00C007C0A3
:200C050006C004C0057483C0E0741CC0E012110FE58124FCF581D006D00780218F047D00ED
:200C2500C007C006C004C00574A6C0E0741CC0E012110FE58124FCF581D006D007C007C04D
:200C45000612101FE582D006D00760F1C007C006121064AC82D006D007EC24D0F5318F035D
:200C65007C00A9317A00C007C006C004C003C002C001C003C004C001C00274C9C0E0741C91
:200C8500C0E012110FE58124FAF581D001D002D003D004D006D007E53124F75003020DF900
:200CA500EE600FE5317003020DF07401B53103020DF0E4BF020104FE6017E5317003020D36
:200CC500E77401B53103020DE77402B53103020DE7901CDD75F080C007C006C004C003C03D
:200CE50002C001121265D001D002D003D004D006D007C007C006C004C003C002C0011210F3
:200D05001FE582D001D002D003D004D006D00760E1C007C006C004C003C002C001121064F3
:200D2500A882D001D002D003D004D006D007E824D0FD6008BD01028003020DDEBD014D858C
:200D450031F005F0ED800225E0D5F0FBF4FDC007C006C005C003C004C001C00274EAC0E0F9
:200D6500741CC0E012110FE58124FAF581D005D006D007EF7004ED528022BF0104ED5290B9
:200D850022EE6004ED52A022ED52B0228531F005F07401800225E0D5F0FBFDC007C006C027
:200DA50005C003C004C001C0027409C0E0741DC0E012110FE58124FAF581D005D006D00723
:200DC500EF7004ED428022BF0104ED429022EE6004ED42A022ED42B022901D2975F0800234
:200DE5001265901D8075F080021265901D3975F080021265901D7375F080021265901E126A
:200E050075F080021265120AD3901F1475F08012126512008512101FE58260F6121064AE86
:200E250082BE300092004014EE2485400F8E057F008D828F83C006121050D00690000DC0D3
:200E450006121050D006BE30028067BE3103020EBFBE3203020EC7BE3303020ECFBE430207
:200E6500802DBE45028032BE48028041BE63028019BE6502801EBE66028023BE6802802D23
:200E8500BE6D02801EBE724A801E1204A98062120890805D1200A1805812026E8053120050
:200EA5008C804E12069D8049120AC88044120E02803F758200120BCE8037758201120BCE50
:200EC500802F758202120BCE8027758203120BCE801F20001CEE248540177F00C006C00719
:200EE5007430C0E0741FC0E012110FE58124FCF58112101FE582600512106480F4901F454D
:090F050075F080121265020E174E
:2012C50048656C6C6F20576F726C642E2E2E0D54686973206973206120746573742073745A
:2012E50072696E672E0D00202020202020202020202020202069577320202020202020200B
:20130500202020202020202020202020202020202020202020202020202C575B0A20202060
:201325002020202020202020202020574040572E20202020202020202020202020202020EC
:2013450020202020202020202020202020206740405B0A20202020202020202020202020DC
:2013650069404040404073202020202020202020202020202020202020202020202020202C
:2013850020206740404040570A2020202020202020202020202040404040404040572E203B
:2013A500202020202020202020202020202020202020202020202C574040404040400A203B
:2013C50020202020202020202020205D404040404040404040572E2020202C5F5F5F5F5F1F
:2013E5005F5F2E202020202020202C6D4040404040404040690A20202020202020202020D0
:20140500202C4040404040404040404040405740404040404040404040404040406D6D5F6B
:2014250067404040404040404040405B0A20202020202020202020206440404040404040D7
:20144500404040404040404040404040404040404040404040404040404040404040404087
:201465004040400A202020202020202020206940404040404040412A7E7E7E7E7E564D4070
:2014850040404040404040404041667E7E7E7E562A404040404040404040690A20202020B5
:2014A5002020202020204040404040417E20202020202020202020274D40404040404041F3
:2014C500602020202020202020202756404040404040620A2020202020202020206440401A
:2014E500402A6020202020202020202020202020205940404040662020202020202020207E
:2015050020202020205640404040402E0A202020202020202069404041602020202020200E
:2015250020202020202020202020204D404050202020202020202020202020202020202009
:2015450056404040620A202020202020202C40404120202020202020202020202020202057
:201565002020202027404020202020202020202020202020202020202020214040402E0AC6
:2015850020202020202020574050202020202020202020202020202020202020202020409F
:2015A5005B2020202020202020202020202020202020202020274040570A20202020202083
:2015C5006440402020202020202020202020202C2020202020202020205D21202020202038
:2015E500202020202020202020202020202020205D4040620A20202020206740405B20207B
:2016050020202020202020202C57404073202020202020205D202020202020202C5740402F
:20162500732020202020202020202020404040690A20202020694040405B202020202020DB
:20164500202020205740404040692020202020205D20202020202020574040404069202048
:20166500202020202020202040404040690A20202069404040405B202020202020202020AE
:201685002040404040405B2020202020205D2020202020202040404040405B202020202052
:2016A50020202020204040404040690A20206740404040405B202020202020202020204010
:2016C5004040404021202020202020405B20202020202040404040405B202020202020204E
:2016E500202020404040404040690A206440404040404040202020202020202020202140AD
:20170500404050202020202020694157202020202020214040404120202020202020202031
:20172500205D40404040404040690A574040404040404040622020202020202020202027D4
:201745007E7E2020202020202C5A205969202020202020277E7E202020202020202020203D
:201765002C4040404040404040400A272A40404040404040407320202020202020202020EA
:2017850020202020202020205A602020592E20202020202020202020202020202020202C77
:2017A500574040404040404040410A2020274D4040402A662A2A572E2020202020202020A5
:2017C5002020202020202C5A202020202056732020202020202020202020202020202C57F2
:2017E5002A7E7E7E4D404040660A20202020274D40202020202756732E2020202020202011
:201805002020202C7A7E20202020202020274E5F20202020202020202020202C5A7E2020E7
:201825002020206440500A2020204D404040202020202020207E2D5F5F20205F5F7A2F6088
:20184500202C676D5740406D6D5F20272B655F2E2020205F5F3D2F602020202020202C40D9
:201865004040400A2020202027564D57202020202020202020202020202020202020674011
:2018850040404040404040405720202020207E7E7E202020202020202020202C5741660A5E
:2018A500202020202020207E4E2E20202020202020202020202020202020404040404040C9
:2018C500404040404021202020202020202020202020202020202C5A600A202020202020F2
:2018E500202020562E202020202020202020202020202020214D404040404040404066202B
:2019050020202020202020202020202020202067662D0A20202020202020202020274E2EFB
:20192500202020202020202020202020202020277E2A2A2A667E202020202020202020207B
:201945002020202020202C5A600A20202020202020202020202056632E202020202020208B
:201965002020202020202020202020202020202020202020202020202020205F5A660A20B9
:20198500202020202020202020202020207E655F2020202020202020202020202020202060
:2019A500202020202020202020202020202C67597E0A20202020202020202020202020204E
:2019C500202027563D5F202020202020202020202D4040442020202020202020202C67596C
:2019E5007E20270A20202020202020202020202020202020202020207E3D5F5F2E2020208C
:201A050020202020202020202C5F5F7A3D7E600A2020202020202020202020202020202038
:201A2500202020202020202020277E7E7E2A3D3D592A667E7E7E200044756D70696E6720C5
:201A4500656570726F6D20636F6E74656E7420616E64206368616E67696E67206669727358
:201A650074206368617261637465723A00303030257820200030302578202000302578204F
:201A85002000257820200025782000207C0025630044756D70696E6720656570726F6D20C7
:201AA500636F6E74656E7420696E2068657820666F726D61743A003A31300030303025781F
:201AC5000030302578003025780025780030300025780D002573003A30303030303030313D
:201AE50046460044756D70696E6720636F64653A0044756D70696E672072616D206D656DF9
:201B05006F72793A0044756D70696E6720636F646520696E206865782066696C6520666F8C
:201B2500726D61743A00526573657474696E6720746865206D6963726F2E004370752025C7
:201B4500732072756E6E696E672061742025734D487A0D00383953383235330031312E30CD
:201B650035393200446F75626C652073797374656D20636C6F636B00436F6C642072657388
:201B85006574005761726D20726573657400456E61626C6564207761746368646F6700531E
:201BA5007461727465642074696D657220322077697468207468203D20257820616E6420A4
:201BC500746C203D2025780D00537461727465642073657269616C206174202573206270E3
:201BE500730D0031313532303000537461727465642074696D65722030207769746820745F
:201C050068203D20257820616E6420746C203D2025780D0048656C6C6F20576F726C642E79
:201C25002E2E0D546869732069732061207465737420737472696E672E0A5072696E742025
:201C45006120737472696E672066726F6D20636F6465206D656D6F72793A005768696368F2
:201C65002070696E2066726F6D203220746F2037206F6620706F72742025753F0D005768D9
:201C85006963682070696E2066726F6D203320746F2037206F6620706F72742025753F0D43
:201CA5000057686963682070696E2066726F6D203020746F2037206F6620706F7274202528
:201CC500753F0D0050696E202575206F6620706F72742025753A200030206F66662C203167
:201CE500206F6E2E0053657474696E672070696E202575206F6620706F7274202575206F92
:201D05006E2E0D0053657474696E672070696E202575206F6620706F7274202575206F668D
:201D2500662E0D00496E76616C696420616374696F6E2100536F72727920746865207069FE
:201D45006E73203020616E642031206F6620706F7274203320617265207573656420627958
:201D65002073657269616C20706F72742E00496E76616C69642070696E2100536F7272793D
:201D8500207468652070696E2030206F6E20706F727420322069732074686520626C696ED0
:201DA5006B696E67206C65642C0A7468652070696E20312069732074686520736572696160
:201DC5006C20636861726163746572207472616E736D697420626C696E6B2C0A746865206C
:201DE50070696E2032206973207468652073657269616C2063686172616374657220726584
:201E0500636569766520626C696E6B2E00417661696C61626C6520636F6D616D6E64732040
:201E25006172653A0A302C20312C2032206F72203320746F206368616E67652070696E2092
:201E4500706F727473207374617475732E0A632064756D7020636F6465206D656D6F72799C
:201E65002E0A432064756D7020636F6465206D656D6F727920696E2068657820666F726D68
:201E850061742E0A652064756D7020656570726F6D206D656D6F72792E0A452064756D7041
:201EA50020656570726F6D206D656D6F727920696E2068657820666F726D61742E0A6D20F2
:201EC50064756D702072616D206D656D6F72792E0A66207072696E742066656C69780A728F
:201EE50020726573657420746865206D6963726F636F6E74726F6C6C65722E0A6820707219
:201F0500696E7420746869732068656C702E00496E7365727420636F6D6D616E642C20687A
:201F250020666F722068656C702E00496E76616C696420636F6D6D616E642025632E0D0095
:1C1F4500496E7365727420636F6D6D616E642C206820666F722068656C703A00EE
:200F0E00C0E0C0F0C082C083850882850983E0F50AD083D082D0F0D0E032AE82AF8343966D
:200F2E00088E088F09120F0E850A825396F722C0E0C0F0C082C083850882850983E50AF057
:200F4E00D083D082D0F0D0E032AF82439608439610850B08850C098F0A120F3D5396EF53ED
:0B0F6E0096F7850B82850C83020F288C
:200F7900AF82753300753400753200753500C201D2B0D2B175985053C8F043C8308FCD8539
:200F99000ECC8FCB850ECAD2CAD2BCD2AFD2AC22C0E0C0D075D0101098028015E533FF047D
:200FB900F533EF2436F8A69974F0253350037533001099028020E532B53504C2018017D23D
:200FD90001E532FF04F532EF2446F9879974F02532500375320075A61E75A6E1D0D0D0E00A
:200FF90032AF82E5352446F8A607AE350EBE100040027E00EEB5320280FA8E35200102D2C4
:2010190099B2A18F822275A61E75A6E1E534B53303D38001C3B39202E433F58222E534FF39
:2010390004F534EF2436F9870774F025345003753400B2A28F8222AE82AF83C007C0061259
:131059000FFAD006D0078E828F83221210367E008E832281
:20106C00AF825389F08F8C850E8AD2A9D2AFD28C2285568285578322C021C0E0C0F0C08262
:20108C00C083C007C006C005C004C003C002C001C000C0D075D018AE56AF5774012EF55600
:2010AC00E43FF557C3E5569558E55795595006855658855759750E97750F0185568285570A
:2010CC008375D00012121875D018E5828583F045F07013C3E5589556E55995575008855644
:2010EC0058855759B2A0D0D0D000D001D002D003D004D005D006D007D083D082D0F0D0E0B4
:03110C00D02132BD
:06005800E478FFF6D8FD7C
:200036007900E94400601B7A00901F61780175A000E493F2A308B8000205A0D9F4DAF275F0
:02005600A0FF09
:20110F00C00D85810DE50D24FDF8868318868218E493A324DB600C242560051211FD80F0D1
:20112F00021215D2D5E493A3C083C082B4731486F0188683188682181212A56054A31211E4
:20114F00FD80F5B4630818E6181211FD8043B46417E630E74618E6F42401F608E6F4340061
:20116F00F6742D1211FD8033B4782D868318868218E41211EEE5831211EDE5831211EEE591
:20118F00821211EDE5821211EE30D50574301211FDD082D08302111FB475F6E6FA18E6F99B
:2011AF00187C107D271211D8FF7CE87D031211D8C4F5837C647D001211D84283E975F00A4E
:2011CF0084C445F0F582EF80A97B000BC3E99CF9EA9DFA50F61BE92CF9EA3DFAEB22C454F7
:2011EF000F700320D51FC2D52490D43440D4C083C082C0F0F582E8C0E0121050D0E0F8D0C5
:09120F00F0D082D08322D00D2220
:20121800E50E450F60467A01E50E25E0F50EE50F334012F50FE582950EE583950F40030A73
:2012380080E6C3E50F13F50FE50E13F50EC3E582950EF5F0E583950F4005F58385F082C324
:0D125800E50F13F50FE50E13F50EDAE12298
:20005E007800E84400600A790175A000E4F309D8FC7800E84400600C7900900001E4F0A3A0
:04007E00D8FCD9FAD7
:20126500AD82AE83AFF08D828E838FF01212A5FC60280DBD00010E7B008C828B83C007C087
:2012850006C005121050AB82AC83D005D006D007BBFFD3BCFFD090FFFF2290000A0210506A
:0D0029007581591212C1E5826003020026A4
:1C12A50020F71430F6148883A88220F507E6A88375830022E280F7E49322E02258
:0412C1007582002210
:00000001FF
