:04000000020029329F
:03000B00020C5292
:0100130032BA
:01001B0032B2
:03002300020B834A
:0300820002002653
:03002600020A09C2
:2000850043C4019000002243C40843C410E59130E3FB53C43F2290000D120C1E900EB675DD
:2000A500F080120E3390000D020C1E7D007E007F8090160775F080C007C006C005120E337E
:2000C500D005D006D007E4F522F523F524F525C374FF952274FF9523E49524E495255003AD
:2000E5000202DFC3E5229410E5239400E5249400E52594005028A822AC23C007C006C00570
:20010500C000C0047415C0E07416C0E0120CDDE58124FCF581D005D006D0070201B4C3E52B
:20012500239401E5249400E52594005027A922AA23C007C006C005C001C002741DC0E0743E
:2001450016C0E0120CDDE58124FCF581D005D006D007805BC3E5239410E5249400E52594E6
:20016500005027A922AA23C007C006C005C001C0027424C0E07416C0E0120CDDE58124FCB3
:20018500F581D005D006D0078025A922AA23C007C006C005C001C002742AC0E07416C0E0E8
:2001A500120CDDE58124FCF581D005D006D0078D028E038F04E4F526F527C3E5269410E59C
:2001C500279400505F8A828B838CF0120E73F9B910005012900030C004C003C002120C1E1E
:2001E500D002D003D0048A828B838CF0120E73F9A3AA82AB8389007900C004C003C002C057
:2002050000C001742FC0E07416C0E0120CDDE58124FCF581D002D003D0040526E4B5269AB7
:2002250005278096C004C003C0027433C0E07416C0E0120CDD15811581D002D003D004EA33
:2002450024F0FAEB34FFFB75280074F0252840548A828B838CF0120E73F8B820004005E86A
:200265002481501490002EC004C003C002120C1ED002D003D00480237900C004C003C0024F
:20028500C000C0017436C0E07416C0E0120CDDE58124FCF581D002D003D0040ABA00010B24
:2002A500052880A68A058B068C0790007CC007C006C005120C1E90000D120C1ED005D00615
:2002C500D00774102522F522E43523F523E43524F524E43525F5250200D490000D020C1EBF
:2002E5007D007E007F4090163975F080C007C006C005120E33D005D006D007E4F529F52A33
:20030500C374FF95297403952A50030204D3C3E5299410E52A94005023C007C006C005C0E5
:2003250029C02A7415C0E07416C0E0120CDDE58124FCF581D005D006D007807374FF252A24
:200345004023C007C006C005C029C02A741DC0E07416C0E0120CDDE58124FCF581D005D019
:2003650006D007804A74F0252A4023C007C006C005C029C02A7424C0E07416C0E0120CDD39
:20038500E58124FCF581D005D006D0078021C007C006C005C029C02A742AC0E07416C0E0AC
:2003A500120CDDE58124FCF581D005D006D0078D008E018F02E4F52BF52CC3E52B9410E591
:2003C5002C9400505D888289838AF0120E73FCBC10005012900030C002C001C000120C1E1F
:2003E500D000D001D002888289838AF0120E73FCA3A882A9837B00C002C001C000C004C02B
:2004050003742FC0E07416C0E0120CDDE58124FCF581D000D001D002052BE4B52B9C052C3C
:200425008098C002C001C0007433C0E07416C0E0120CDD15811581D000D001D002E824F055
:20044500FCE934FFFB752D0074F0252D40548C828B838AF0120E73F8B820004005E82481CD
:20046500501490002EC004C003C002120C1ED002D003D00480237900C004C003C002C00032
:20048500C0017436C0E07416C0E0120CDDE58124FCF581D002D003D0040CBC00010B052DAC
:2004A50080A68C058B068A0790007CC007C006C005120C1E90000D120C1ED005D006D00769
:2004C50074102529F529E4352AF52A02030590000D020C1E752E00752F0075308090164D93
:2004E50075F080120E33E4F533F534F535F536C374FF953374FF9534E49535E4953650034B
:200505000206D6746EC0E07416C0E0120CDD1581158178107F00C3E5339410E5349400E50D
:20052500359400E53694005024AD33AE34C007C000C005C0067472C0E07416C0E0120CDD4B
:20054500E58124FCF581D000D0070205D7C3E5349401E5359400E53694005023AD33AE3412
:20056500C007C000C005C0067478C0E07416C0E0120CDDE58124FCF581D000D0078053C37A
:20058500E5349410E5359400E53694005023AD33AE34C007C000C005C006747DC0E07416DA
:2005A500C0E0120CDDE58124FCF581D000D0078021AD33AE34C007C000C005C0067481C0CE
:2005C500E07416C0E0120CDDE58124FCF581D000D007AE347D00EE28FEED3FFDA8337F0078
:2005E500E82EF531EF3DF5327484C0E07416C0E0120CDD15811581AD2EA82FAF3075370041
:2006050074F02537406D8D8288838FF0120E73FEBE10005012900030C007C005C000120CE4
:200625001ED000D005D0078D8288838FF0120E73FC7E00C007C005C000C004C0067481C0EA
:20064500E07416C0E0120CDDE58124FCF581D000D005D0078D8288838FF0120E73FEA3AD9E
:2006650082A8837C00EE2531F531EC3532F5320537808D8D2E882F8F30E531F4FEE532F4DB
:200685007F000EBE00010F8E047D00C3EC9410ED9400500E900030C007C006120C1ED0065A
:2006A500D0077F00C006C0077487C0E07416C0E0120CDDE58124FCF58174102533F533E4AE
:2006C5003534F534E43535F535E43536F5360204F4748EC0E07416C0E07480C0E0748BC078
:2006E500E07416C0E0120CDDE58124FBF58190000D120C1E90000D020C1E90169A75F0802E
:20070500120E3380FE7580FF7590FF75A0FF75B0FF750EFD7582FF120B5312009B74D1C03B
:20072500E07416C0E07480C0E074C8C0E07416C0E07480C0E074AFC0E07416C0E0120CDD94
:20074500E58124F8F58112008C9016D975F080120E3374FDC0E0E4C0E014C0E0E4C0E07406
:20076500FCC0E07416C0E0120CDDE58124FAF5817440C0E07417C0E07480C0E07426C0E06C
:200785007417C0E0120CDDE58124FBF581750EED7582DE120C3A74EDC0E0E4C0E074DEC0FF
:2007A500E0E4C0E07447C0E07417C0E0120CDDE58124FAF58190177175F080120E33900E67
:2007C5008F75F080020E33AF82E4BF030104FE60238F047D00C007C006C004C00574B8C0EE
:2007E500E07417C0E0120CDDE58124FCF581D006D0078047BF02238F047D00C007C006C03D
:2008050004C00574DBC0E07417C0E0120CDDE58124FCF581D006D00780218F047D00C007D4
:20082500C006C004C00574FEC0E07417C0E0120CDDE58124FCF581D006D007C007C00612E4
:200845000BF3E582D006D00760F1C007C006120C32AC82D006D007EC24D0F5388F037C005D
:20086500A9387A00C007C006C004C003C002C001C003C004C001C0027421C0E07418C0E016
:20088500120CDDE58124FAF581D001D002D003D004D006D007E53824F750030209F7EE608C
:2008A5000FE53870030209EE7401B538030209EEE4BF020104FE6017E53870030209E5742A
:2008C50001B538030209E57402B538030209E590183575F080C007C006C004C003C002C084
:2008E50001120E33D001D002D003D004D006D007C007C006C004C003C002C001120BF3E51C
:2009050082D001D002D003D004D006D00760E1C007C006C004C003C002C001120C32A88207
:20092500D001D002D003D004D006D007E824D0FD6008BD010280030209DCBD014D8538F098
:2009450005F0ED800225E0D5F0FBF4FDC007C006C005C003C004C001C0027442C0E074183A
:20096500C0E0120CDDE58124FAF581D005D006D007EF7004ED528022BF0104ED529022EE74
:200985006004ED52A022ED52B0228538F005F07401800225E0D5F0FBFDC007C006C005C06F
:2009A50003C004C001C0027461C0E07418C0E0120CDDE58124FAF581D005D006D007EF7071
:2009C50004ED428022BF0104ED429022EE6004ED42A022ED42B02290188175F080020E3303
:2009E5009018D875F080020E3390189175F080020E339018CB75F080020E3390196A75F0D6
:200A050080020E3312070A901A1575F080120E33120BF3E58260F9120C32AE82BE30009224
:200A2500004014EE2485400F8E057F008D828F83C006120C1ED00690000DC006120C1ED0FD
:200A450006BE30028046BE31028049BE3202804CBE3302804FBE4302801EBE48028028BE8C
:200A65006302800FBE66028014BE68028019BE6D3B800F1200B080531204D9804E12009B0E
:200A850080491202E58044120A00803F7582001207CC80377582011207CC802F75820212C6
:200AA50007CC80277582031207CC801F20001CEE248540177F00C006C0077431C0E0741A30
:200AC500C0E0120CDDE58124FCF581120BF3E5826005120C3280F4901A4675F080120E33B2
:030AE500020A15ED
:200E8F0048656C6C6F20576F726C642E2E2E0D546869732069732061207465737420737494
:200EAF0072696E672E0D002020202020202020202020202020695773202020202020202045
:200ECF00202020202020202020202020202020202020202020202020202C575B0A2020209B
:200EEF002020202020202020202020574040572E2020202020202020202020202020202027
:200F0F0020202020202020202020202020206740405B0A2020202020202020202020202016
:200F2F00694040404040732020202020202020202020202020202020202020202020202066
:200F4F0020206740404040570A2020202020202020202020202040404040404040572E2075
:200F6F00202020202020202020202020202020202020202020202C574040404040400A2075
:200F8F0020202020202020202020205D404040404040404040572E2020202C5F5F5F5F5F59
:200FAF005F5F2E202020202020202C6D4040404040404040690A202020202020202020200A
:200FCF00202C4040404040404040404040405740404040404040404040404040406D6D5FA6
:200FEF0067404040404040404040405B0A2020202020202020202020644040404040404012
:20100F004040404040404040404040404040404040404040404040404040404040404040C1
:20102F004040400A202020202020202020206940404040404040412A7E7E7E7E7E564D40AA
:20104F0040404040404040404041667E7E7E7E562A404040404040404040690A20202020EF
:20106F002020202020204040404040417E20202020202020202020274D404040404040412D
:20108F00602020202020202020202756404040404040620A20202020202020202064404054
:2010AF00402A602020202020202020202020202020594040404066202020202020202020B8
:2010CF0020202020205640404040402E0A2020202020202020694040416020202020202049
:2010EF0020202020202020202020204D404050202020202020202020202020202020202044
:20110F0056404040620A202020202020202C40404120202020202020202020202020202091
:20112F002020202027404020202020202020202020202020202020202020214040402E0A00
:20114F002020202020202057405020202020202020202020202020202020202020202040D9
:20116F005B2020202020202020202020202020202020202020274040570A202020202020BD
:20118F006440402020202020202020202020202C2020202020202020205D21202020202072
:2011AF00202020202020202020202020202020205D4040620A20202020206740405B2020B5
:2011CF0020202020202020202C57404073202020202020205D202020202020202C5740406A
:2011EF00732020202020202020202020404040690A20202020694040405B20202020202016
:20120F00202020205740404040692020202020205D20202020202020574040404069202082
:20122F00202020202020202040404040690A20202069404040405B202020202020202020E8
:20124F002040404040405B2020202020205D2020202020202040404040405B20202020208C
:20126F0020202020204040404040690A20206740404040405B20202020202020202020404A
:20128F004040404021202020202020405B20202020202040404040405B2020202020202088
:2012AF00202020404040404040690A206440404040404040202020202020202020202140E7
:2012CF0040405020202020202069415720202020202021404040412020202020202020206C
:2012EF00205D40404040404040690A5740404040404040406220202020202020202020270F
:20130F007E7E2020202020202C5A205969202020202020277E7E2020202020202020202077
:20132F002C4040404040404040400A272A4040404040404040732020202020202020202024
:20134F0020202020202020205A602020592E20202020202020202020202020202020202CB1
:20136F00574040404040404040410A2020274D4040402A662A2A572E2020202020202020DF
:20138F002020202020202C5A202020202056732020202020202020202020202020202C572C
:2013AF002A7E7E7E4D404040660A20202020274D40202020202756732E202020202020204B
:2013CF002020202C7A7E20202020202020274E5F20202020202020202020202C5A7E202022
:2013EF002020206440500A2020204D404040202020202020207E2D5F5F20205F5F7A2F60C3
:20140F00202C676D5740406D6D5F20272B655F2E2020205F5F3D2F602020202020202C4013
:20142F004040400A2020202027564D5720202020202020202020202020202020202067404B
:20144F0040404040404040405720202020207E7E7E202020202020202020202C5741660A98
:20146F00202020202020207E4E2E2020202020202020202020202020202040404040404003
:20148F00404040404021202020202020202020202020202020202C5A600A2020202020202C
:2014AF00202020562E202020202020202020202020202020214D4040404040404040662065
:2014CF0020202020202020202020202020202067662D0A20202020202020202020274E2E36
:2014EF00202020202020202020202020202020277E2A2A2A667E20202020202020202020B6
:20150F002020202020202C5A600A20202020202020202020202056632E20202020202020C5
:20152F002020202020202020202020202020202020202020202020202020205F5A660A20F3
:20154F00202020202020202020202020207E655F202020202020202020202020202020209A
:20156F00202020202020202020202020202C67597E0A202020202020202020202020202088
:20158F00202027563D5F202020202020202020202D4040442020202020202020202C6759A6
:2015AF007E20270A20202020202020202020202020202020202020207E3D5F5F2E202020C6
:2015CF0020202020202020202C5F5F7A3D7E600A2020202020202020202020202020202073
:2015EF00202020202020202020277E7E7E2A3D3D592A667E7E7E200044756D70696E672000
:20160F00636F64653A00303030257820200030302578202000302578202000257820200052
:20162F0025782000207C0025630044756D70696E672072616D206D656D6F72793A004475DA
:20164F006D70696E6720636F646520696E206865782066696C6520666F726D61743A003A6C
:20166F0031300030303025780030302578003025780025780030300025780D002573003A8A
:20168F003030303030303031464600526573657474696E6720746865206D6963726F2E00B0
:2016AF004370752025732072756E6E696E672061742025734D487A0D00445338394334359D
:2016CF00300031312E3035393200456E61626C656420666F75722074696D6520636C6F6354
:2016EF006B206D756C7469706C69657200537461727465642074696D65722032207769742B
:20170F0068207468203D20257820616E6420746C203D2025780D0053746172746564207358
:20172F00657269616C206174202573206270730D003131353230300053746172746564204E
:20174F0074696D657220302077697468207468203D20257820616E6420746C203D202578AA
:20176F000D0048656C6C6F20576F726C642E2E2E0D54686973206973206120746573742085
:20178F00737472696E672E0A5072696E74206120737472696E672066726F6D20636F646597
:2017AF00206D656D6F72793A0057686963682070696E2066726F6D203220746F2037206FBE
:2017CF006620706F72742025753F0D0057686963682070696E2066726F6D203320746F2005
:2017EF0037206F6620706F72742025753F0D0057686963682070696E2066726F6D20302025
:20180F00746F2037206F6620706F72742025753F0D0050696E202575206F6620706F7274E4
:20182F002025753A200030206F66662C2031206F6E2E0053657474696E672070696E2025C8
:20184F0075206F6620706F7274202575206F6E2E0D0053657474696E672070696E20257539
:20186F00206F6620706F7274202575206F66662E0D00496E76616C696420616374696F6ECA
:20188F002100536F727279207468652070696E73203020616E642031206F6620706F7274F0
:2018AF0020332061726520757365642062792073657269616C20706F72742E00496E766161
:2018CF006C69642070696E2100536F727279207468652070696E2030206F6E20706F72741F
:2018EF0020322069732074686520626C696E6B696E67206C65642C0A7468652070696E2069
:20190F0031206973207468652073657269616C20636861726163746572207472616E736D08
:20192F00697420626C696E6B2C0A7468652070696E203220697320746865207365726961CA
:20194F006C20636861726163746572207265636569766520626C696E6B2E00417661696CF1
:20196F0061626C6520636F6D6D616E6473206172653A0A302C20312C2032206F7220332017
:20198F00746F206368616E67652070696E20706F727473207374617475732E0A63206475B8
:2019AF006D7020636F6465206D656D6F72792E0A432064756D7020636F6465206D656D6FED
:2019CF00727920696E2068657820666F726D61742E0A6D2064756D702072616D206D656DCE
:2019EF006F72792E0A66207072696E742066656C69780A68207072696E74207468697320A4
:201A0F0068656C702E00496E7365727420636F6D6D616E642C206820666F722068656C7088
:201A2F002E00496E76616C696420636F6D6D616E642025632E0D00496E7365727420636F59
:131A4F006D6D616E642C206820666F722068656C703A0059
:200AE800C0E0C0F0C082C083850882850983E0F50AD083D082D0F0D0E032AE82AF83439698
:200B0800088E088F09120AE8850A825396F722C0E0C0F0C082C083850882850983E50AF0AC
:200B2800D083D082D0F0D0E032AF82439608439610850B08850C098F0A120B175396EF5341
:0B0B480096F7850B82850C83020B02E0
:200B5300AF82753A00753B00753900753C00C201D2B0D2B175985053C8F043C8308FCD8547
:200B73000ECC8FCB850ECAD2CAD2BCD2AFD2AC22C0E0C0D075D0101098028015E53AFF04A0
:200B9300F53AEF243DF8A69974F0253A5003753A001099028020E539B53C04C2018017D23D
:200BB30001E539FF04F539EF244DF9879974F025395003753900D0D0D0E032AF82E53C249E
:200BD3004DF8A607AE3C0EBE100040027E00EEB5390280FA8E3C200102D299B2A18F822254
:200BF300E53BB53A03D38001C3B39202E433F58222E53BFF04F53BEF243DF9870774F0250F
:200C13003B5003753B00B2A28F8222AE82AF83C007C006120BCED006D0078E828F8322121F
:070C33000C047E008E8322F9
:200C3A00AF825389F08F8C850E8AD2A9D2AFD28C22855D82855E8322C021C0E0C0F0C0828A
:200C5A00C083C007C006C005C004C003C002C001C000C0D075D018AE5DAF5E74012EF55D21
:200C7A00E43FF55EC3E55D955FE55E95605006855D5F855E60750E97750F01855D82855EF3
:200C9A008375D000120DE675D018E5828583F045F07013C3E55F955DE560955E5008855D8E
:200CBA005F855E60B2A0D0D0D000D001D002D003D004D005D006D007D083D082D0F0D0E0D5
:030CDA00D02132F4
:06005800E478FFF6D8FD7C
:200036007900E94400601B7A00901A62780175A000E493F2A308B8000205A0D9F4DAF275F4
:02005600A0FF09
:200CDD00C00D85810DE50D24FDF8868318868218E493A324DB600C24256005120DCB80F03E
:200CFD00020DE3D2D5E493A3C083C082B4731486F018868318868218120E736054A3120D8C
:200D1D00CB80F5B4630818E618120DCB8043B46417E630E74618E6F42401F608E6F43400FF
:200D3D00F6742D120DCB8033B4782D868318868218E4120DBCE583120DBBE583120DBCE59F
:200D5D0082120DBBE582120DBC30D5057430120DCBD082D083020CEDB475F6E6FA18E6F9AA
:200D7D00187C107D27120DA6FF7CE87D03120DA6C4F5837C647D00120DA64283E975F00A26
:200D9D0084C445F0F582EF80A97B000BC3E99CF9EA9DFA50F61BE92CF9EA3DFAEB22C4542D
:200DBD000F700320D51FC2D52490D43440D4C083C082C0F0F582E8C0E0120C1ED0E0F8D031
:090DDD00F0D082D08322D00D2257
:200DE600E50E450F60467A01E50E25E0F50EE50F334012F50FE582950EE583950F40030AAA
:200E060080E6C3E50F13F50FE50E13F50EC3E582950EF5F0E583950F4005F58385F082C35A
:0D0E2600E50F13F50FE50E13F50EDAE122CE
:20005E007800E84400600A790175A000E4F309D8FC7800E84400600C7900900001E4F0A3A0
:04007E00D8FCD9FAD7
:200E3300AD82AE83AFF08D828E838FF0120E73FC60280DBD00010E7B008C828B83C007C0F3
:200E530006C005120C1EAB82AC83D005D006D007BBFFD3BCFFD090FFFF2290000A020C1E0C
:0D002900758160120085E5826003020026EB
:1C0E730020F71430F6148883A88220F507E6A88375830022E280F7E49322E0228E
:00000001FF
